{
  "address": "0xB732E596fD436f26B86Bb52bC353530Ed87fBaf5",
  "abi": [
    {
      "inputs": [
        {
          "internalType": "address",
          "name": "_tokenIn",
          "type": "address"
        },
        {
          "internalType": "address",
          "name": "_tokenOut",
          "type": "address"
        },
        {
          "internalType": "uint256",
          "name": "_amountIn",
          "type": "uint256"
        }
      ],
      "name": "getAmountOutMin",
      "outputs": [
        {
          "internalType": "uint256",
          "name": "",
          "type": "uint256"
        }
      ],
      "stateMutability": "view",
      "type": "function"
    },
    {
      "inputs": [
        {
          "internalType": "address",
          "name": "_tokenIn",
          "type": "address"
        },
        {
          "internalType": "address",
          "name": "_tokenOut",
          "type": "address"
        },
        {
          "internalType": "uint256",
          "name": "_amountIn",
          "type": "uint256"
        },
        {
          "internalType": "uint256",
          "name": "_amountOutMin",
          "type": "uint256"
        },
        {
          "internalType": "address",
          "name": "_to",
          "type": "address"
        }
      ],
      "name": "swap",
      "outputs": [],
      "stateMutability": "nonpayable",
      "type": "function"
    }
  ],
  "transactionHash": "0x69d4cb90e0c8879657ed36571539f81bc66a808fdf56d9fc5437d3b1e4098250",
  "args": [],
  "numDeployments": 1,
  "solcInputHash": "ee2ab5cfb985649e459e68a971023389",
  "bytecode": "0x608060405234801561001057600080fd5b506109d1806100206000396000f3fe608060405234801561001057600080fd5b50600436106100365760003560e01c80633c50eec11461003b578063d5bcb9b514610064575b600080fd5b61004e610049366004610705565b610079565b60405161005b91906108fc565b60405180910390f35b610077610072366004610740565b610340565b005b600060606001600160a01b0385167376a3ef01506eb19d6b34c4bdcf3cdcde14f6b11e14806100c457506001600160a01b0384167376a3ef01506eb19d6b34c4bdcf3cdcde14f6b11e145b15610172576040805160028082526060820183529091602083019080368337019050509050848160008151811061010b57634e487b7160e01b600052603260045260246000fd5b60200260200101906001600160a01b031690816001600160a01b031681525050838160018151811061014d57634e487b7160e01b600052603260045260246000fd5b60200260200101906001600160a01b031690816001600160a01b03168152505061026e565b60408051600380825260808201909252906020820160608036833701905050905084816000815181106101b557634e487b7160e01b600052603260045260246000fd5b60200260200101906001600160a01b031690816001600160a01b0316815250507376a3ef01506eb19d6b34c4bdcf3cdcde14f6b11e8160018151811061020b57634e487b7160e01b600052603260045260246000fd5b60200260200101906001600160a01b031690816001600160a01b031681525050838160028151811061024d57634e487b7160e01b600052603260045260246000fd5b60200260200101906001600160a01b031690816001600160a01b0316815250505b60405163d06ca61f60e01b8152600090737cc8ce65d5f3d7d417188fed0dbfe403fd9564879063d06ca61f906102aa9087908690600401610905565b60006040518083038186803b1580156102c257600080fd5b505afa1580156102d6573d6000803e3d6000fd5b505050506040513d6000823e601f3d908101601f191682016040526102fe9190810190610796565b9050806001835161030f9190610962565b8151811061032d57634e487b7160e01b600052603260045260246000fd5b6020026020010151925050509392505050565b6040516323b872dd60e01b81526001600160a01b038616906323b872dd90610370903390309088906004016108bf565b602060405180830381600087803b15801561038a57600080fd5b505af115801561039e573d6000803e3d6000fd5b505050506040513d601f19601f820116820180604052508101906103c29190610855565b5060405163095ea7b360e01b81526001600160a01b0386169063095ea7b39061040590737cc8ce65d5f3d7d417188fed0dbfe403fd9564879087906004016108e3565b602060405180830381600087803b15801561041f57600080fd5b505af1158015610433573d6000803e3d6000fd5b505050506040513d601f19601f820116820180604052508101906104579190610855565b5060606001600160a01b0386167376a3ef01506eb19d6b34c4bdcf3cdcde14f6b11e14806104a157506001600160a01b0385167376a3ef01506eb19d6b34c4bdcf3cdcde14f6b11e145b1561054f57604080516002808252606082018352909160208301908036833701905050905085816000815181106104e857634e487b7160e01b600052603260045260246000fd5b60200260200101906001600160a01b031690816001600160a01b031681525050848160018151811061052a57634e487b7160e01b600052603260045260246000fd5b60200260200101906001600160a01b031690816001600160a01b03168152505061064b565b604080516003808252608082019092529060208201606080368337019050509050858160008151811061059257634e487b7160e01b600052603260045260246000fd5b60200260200101906001600160a01b031690816001600160a01b0316815250507376a3ef01506eb19d6b34c4bdcf3cdcde14f6b11e816001815181106105e857634e487b7160e01b600052603260045260246000fd5b60200260200101906001600160a01b031690816001600160a01b031681525050848160028151811061062a57634e487b7160e01b600052603260045260246000fd5b60200260200101906001600160a01b031690816001600160a01b0316815250505b6040516338ed173960e01b8152737cc8ce65d5f3d7d417188fed0dbfe403fd956487906338ed17399061068a9087908790869088904290600401610926565b600060405180830381600087803b1580156106a457600080fd5b505af11580156106b8573d6000803e3d6000fd5b505050506040513d6000823e601f3d908101601f191682016040526106e09190810190610796565b50505050505050565b80356001600160a01b038116811461070057600080fd5b919050565b600080600060608486031215610719578283fd5b610722846106e9565b9250610730602085016106e9565b9150604084013590509250925092565b600080600080600060a08688031215610757578081fd5b610760866106e9565b945061076e602087016106e9565b9350604086013592506060860135915061078a608087016106e9565b90509295509295909350565b600060208083850312156107a8578182fd5b825167ffffffffffffffff808211156107bf578384fd5b818501915085601f8301126107d2578384fd5b8151818111156107e4576107e4610985565b838102604051601f19603f8301168101818110858211171561080857610808610985565b604052828152858101935084860182860187018a1015610826578788fd5b8795505b8386101561084857805185526001959095019493860193860161082a565b5098975050505050505050565b600060208284031215610866578081fd5b81518015158114610875578182fd5b9392505050565b6000815180845260208085019450808401835b838110156108b45781516001600160a01b03168752958201959082019060010161088f565b509495945050505050565b6001600160a01b039384168152919092166020820152604081019190915260600190565b6001600160a01b03929092168252602082015260400190565b90815260200190565b60008382526040602083015261091e604083018461087c565b949350505050565b600086825285602083015260a0604083015261094560a083018661087c565b6001600160a01b0394909416606083015250608001529392505050565b60008282101561098057634e487b7160e01b81526011600452602481fd5b500390565b634e487b7160e01b600052604160045260246000fdfea2646970667358221220e4a28ae5cd54577e41fcde7f8a23ca31b2e16a92fb9953d49150696876cc9e2b64736f6c63430008010033",
  "devdoc": {
    "kind": "dev",
    "methods": {},
    "version": 1
  },
  "userdoc": {
    "kind": "user",
    "methods": {},
    "version": 1
  },
  "storageLayout": {
    "storage": [],
    "types": null
  }
}