{
  "address": "0x19198314B29578F645Ad82D2fF2d39900b064754",
  "abi": [
    {
      "inputs": [
        {
          "components": [
            {
              "internalType": "contract IERC20Metadata",
              "name": "feeToken",
              "type": "address"
            },
            {
              "internalType": "uint256",
              "name": "gasEstimate",
              "type": "uint256"
            },
            {
              "internalType": "uint256",
              "name": "gasPrice",
              "type": "uint256"
            },
            {
              "internalType": "uint256",
              "name": "feeAmountUSD",
              "type": "uint256"
            },
            {
              "internalType": "uint256",
              "name": "feeTokenETHPrice",
              "type": "uint256"
            },
            {
              "internalType": "uint256",
              "name": "ethUSDPrice",
              "type": "uint256"
            }
          ],
          "internalType": "struct Fees.FeeData",
          "name": "data",
          "type": "tuple"
        }
      ],
      "name": "computeFees",
      "outputs": [
        {
          "internalType": "uint256",
          "name": "dexibleFee",
          "type": "uint256"
        },
        {
          "internalType": "uint256",
          "name": "gasFee",
          "type": "uint256"
        },
        {
          "internalType": "uint256",
          "name": "totalFees",
          "type": "uint256"
        }
      ],
      "stateMutability": "view",
      "type": "function"
    }
  ],
  "transactionHash": "0xdd210fef22e15e274649a814ecd0fbf67525891d9802203c83adeedc0dab8d3b",
  "args": [],
  "numDeployments": 1,
  "solcInputHash": "b6c607d463019e97165bad1f96e6ae99",
  "bytecode": "0x608060405234801561001057600080fd5b50610601806100206000396000f3fe608060405234801561001057600080fd5b506004361061002b5760003560e01c806399ae390d14610030575b600080fd5b61004361003e36600461032e565b61005b565b60405161005293929190610434565b60405180910390f35b600080600080846020015185604001516100759190610596565b90506100ab60405180604001604052806012815260200171115cdd1a5b585d19590819d85cc818dbdcdd60721b8152508261027d565b600085600001516001600160a01b031663313ce5676040518163ffffffff1660e01b815260040160206040518083038186803b1580156100ea57600080fd5b505afa1580156100fe573d6000803e3d6000fd5b505050506040513d601f19601f8201168201806040525081019061012291906103b8565b60ff16905061014c866080015161014683600a61013f91906104c8565b85906102c6565b906102d9565b935061018d6040518060400160405280601881526020017f47617320706f7274696f6e20696e2066656520746f6b656e00000000000000008152508561027d565b60006101aa87608001518860a001516102c690919063ffffffff16565b90506101e460405180604001604052806016815260200175119959481d1bdad95b881c1c9a58d9481a5b881554d160521b8152508261027d565b61020c816101466101f685602461044a565b61020190600a6104c8565b60608b0151906102c6565b955061023b6040518060400160405280600b81526020016a44657869626c652066656560a81b8152508761027d565b61024586866102e5565b93506102736040518060400160405280600a815260200169546f74616c206665657360b01b8152508561027d565b5050509193909250565b6102c282826040516024016102939291906103d9565b60408051601f198184030181529190526020810180516001600160e01b0316632d839cb360e21b1790526102f1565b5050565b60006102d28284610596565b9392505050565b60006102d28284610462565b60006102d2828461044a565b80516a636f6e736f6c652e6c6f67602083016000808483855afa5050505050565b80356001600160a01b038116811461032957600080fd5b919050565b600060c0828403121561033f578081fd5b60405160c0810181811067ffffffffffffffff8211171561036e57634e487b7160e01b83526041600452602483fd5b60405261037a83610312565b81526020830135602082015260408301356040820152606083013560608201526080830135608082015260a083013560a08201528091505092915050565b6000602082840312156103c9578081fd5b815160ff811681146102d2578182fd5b6000604082528351806040840152815b8181101561040657602081870181015160608684010152016103e9565b818111156104175782606083860101525b50602083019390935250601f91909101601f191601606001919050565b9283526020830191909152604082015260600190565b6000821982111561045d5761045d6105b5565b500190565b60008261047d57634e487b7160e01b81526012600452602481fd5b500490565b80825b600180861161049457506104bf565b8187048211156104a6576104a66105b5565b808616156104b357918102915b9490941c938002610485565b94509492505050565b60006102d260001984846000826104e1575060016102d2565b816104ee575060006102d2565b8160018114610504576002811461050e5761053b565b60019150506102d2565b60ff84111561051f5761051f6105b5565b6001841b915084821115610535576105356105b5565b506102d2565b5060208310610133831016604e8410600b841016171561056e575081810a83811115610569576105696105b5565b6102d2565b61057b8484846001610482565b80860482111561058d5761058d6105b5565b02949350505050565b60008160001904831182151516156105b0576105b06105b5565b500290565b634e487b7160e01b600052601160045260246000fdfea26469706673582212205173caf65a1e855d1c8906d320b609fd5c4c610e42b02cd0dcce4699624e4ec764736f6c63430008010033",
  "devdoc": {
    "kind": "dev",
    "methods": {},
    "version": 1
  },
  "userdoc": {
    "kind": "user",
    "methods": {},
    "version": 1
  },
  "storageLayout": {
    "storage": [],
    "types": null
  }
}