{
  "address": "0x21C2BCD9dbeeA476bB56B9e13ADC69a7dd074023",
  "abi": [
    {
      "anonymous": false,
      "inputs": [
        {
          "indexed": true,
          "internalType": "address",
          "name": "relay",
          "type": "address"
        },
        {
          "indexed": false,
          "internalType": "uint256",
          "name": "amount",
          "type": "uint256"
        }
      ],
      "name": "InsufficientGasFunds",
      "type": "event"
    },
    {
      "anonymous": false,
      "inputs": [
        {
          "indexed": true,
          "internalType": "address",
          "name": "relay",
          "type": "address"
        },
        {
          "indexed": false,
          "internalType": "uint256",
          "name": "amount",
          "type": "uint256"
        }
      ],
      "name": "PaidGasFunds",
      "type": "event"
    },
    {
      "anonymous": false,
      "inputs": [
        {
          "indexed": true,
          "internalType": "address",
          "name": "sender",
          "type": "address"
        },
        {
          "indexed": false,
          "internalType": "uint256",
          "name": "amount",
          "type": "uint256"
        }
      ],
      "name": "ReceivedETH",
      "type": "event"
    },
    {
      "anonymous": false,
      "inputs": [
        {
          "indexed": true,
          "internalType": "address",
          "name": "trader",
          "type": "address"
        },
        {
          "indexed": false,
          "internalType": "string",
          "name": "reason",
          "type": "string"
        },
        {
          "indexed": false,
          "internalType": "contract IERC20",
          "name": "feeToken",
          "type": "address"
        },
        {
          "indexed": false,
          "internalType": "uint256",
          "name": "gasFeePaid",
          "type": "uint256"
        }
      ],
      "name": "SwapFailed",
      "type": "event"
    },
    {
      "anonymous": false,
      "inputs": [
        {
          "indexed": true,
          "internalType": "address",
          "name": "trader",
          "type": "address"
        },
        {
          "indexed": false,
          "internalType": "uint256",
          "name": "inputAmount",
          "type": "uint256"
        },
        {
          "indexed": false,
          "internalType": "uint256",
          "name": "outputAmount",
          "type": "uint256"
        },
        {
          "indexed": false,
          "internalType": "contract IERC20",
          "name": "feeToken",
          "type": "address"
        },
        {
          "indexed": false,
          "internalType": "uint256",
          "name": "gasFee",
          "type": "uint256"
        },
        {
          "indexed": false,
          "internalType": "uint256",
          "name": "dexibleFee",
          "type": "uint256"
        }
      ],
      "name": "SwapSuccess",
      "type": "event"
    },
    {
      "anonymous": false,
      "inputs": [
        {
          "indexed": true,
          "internalType": "address",
          "name": "trader",
          "type": "address"
        },
        {
          "indexed": false,
          "internalType": "uint256",
          "name": "penalty",
          "type": "uint256"
        },
        {
          "indexed": false,
          "internalType": "uint256",
          "name": "gasPaid",
          "type": "uint256"
        },
        {
          "indexed": false,
          "internalType": "string",
          "name": "reason",
          "type": "string"
        }
      ],
      "name": "TraderPenalized",
      "type": "event"
    },
    {
      "anonymous": false,
      "inputs": [
        {
          "indexed": true,
          "internalType": "address",
          "name": "receiver",
          "type": "address"
        },
        {
          "indexed": false,
          "internalType": "uint256",
          "name": "amount",
          "type": "uint256"
        }
      ],
      "name": "WithdrewETH",
      "type": "event"
    },
    {
      "inputs": [],
      "name": "ACTION_ROLE",
      "outputs": [
        {
          "internalType": "bytes32",
          "name": "",
          "type": "bytes32"
        }
      ],
      "stateMutability": "view",
      "type": "function"
    },
    {
      "inputs": [],
      "name": "ADMIN_ROLE",
      "outputs": [
        {
          "internalType": "bytes32",
          "name": "",
          "type": "bytes32"
        }
      ],
      "stateMutability": "view",
      "type": "function"
    },
    {
      "inputs": [],
      "name": "PAUSER_ROLE",
      "outputs": [
        {
          "internalType": "bytes32",
          "name": "",
          "type": "bytes32"
        }
      ],
      "stateMutability": "view",
      "type": "function"
    },
    {
      "inputs": [],
      "name": "RELAY_ROLE",
      "outputs": [
        {
          "internalType": "bytes32",
          "name": "",
          "type": "bytes32"
        }
      ],
      "stateMutability": "view",
      "type": "function"
    },
    {
      "inputs": [
        {
          "components": [
            {
              "internalType": "address",
              "name": "trader",
              "type": "address"
            },
            {
              "internalType": "contract IERC20",
              "name": "feeToken",
              "type": "address"
            },
            {
              "internalType": "uint256",
              "name": "feeTokenETHPrice",
              "type": "uint256"
            },
            {
              "internalType": "uint256",
              "name": "ethUSDPrice",
              "type": "uint256"
            },
            {
              "internalType": "uint256",
              "name": "gasEstimate",
              "type": "uint256"
            },
            {
              "components": [
                {
                  "internalType": "contract IERC20",
                  "name": "token",
                  "type": "address"
                },
                {
                  "internalType": "uint112",
                  "name": "amount",
                  "type": "uint112"
                }
              ],
              "internalType": "struct Types.TokenAmount",
              "name": "input",
              "type": "tuple"
            },
            {
              "components": [
                {
                  "internalType": "contract IERC20",
                  "name": "token",
                  "type": "address"
                },
                {
                  "internalType": "uint112",
                  "name": "amount",
                  "type": "uint112"
                }
              ],
              "internalType": "struct Types.TokenAmount",
              "name": "output",
              "type": "tuple"
            }
          ],
          "internalType": "struct Types.Order",
          "name": "order",
          "type": "tuple"
        },
        {
          "internalType": "contract IDexRouter",
          "name": "router",
          "type": "address"
        },
        {
          "internalType": "bytes",
          "name": "data",
          "type": "bytes"
        }
      ],
      "name": "_trySwap",
      "outputs": [
        {
          "internalType": "bool",
          "name": "success",
          "type": "bool"
        },
        {
          "internalType": "string",
          "name": "failReason",
          "type": "string"
        }
      ],
      "stateMutability": "nonpayable",
      "type": "function"
    },
    {
      "inputs": [
        {
          "internalType": "bytes32",
          "name": "role",
          "type": "bytes32"
        },
        {
          "internalType": "address",
          "name": "actor",
          "type": "address"
        }
      ],
      "name": "addRole",
      "outputs": [],
      "stateMutability": "nonpayable",
      "type": "function"
    },
    {
      "inputs": [
        {
          "internalType": "contract WNative",
          "name": "native",
          "type": "address"
        },
        {
          "internalType": "uint256",
          "name": "amount",
          "type": "uint256"
        }
      ],
      "name": "depositWNative",
      "outputs": [],
      "stateMutability": "nonpayable",
      "type": "function"
    },
    {
      "inputs": [
        {
          "components": [
            {
              "internalType": "address",
              "name": "trader",
              "type": "address"
            },
            {
              "internalType": "contract IERC20",
              "name": "feeToken",
              "type": "address"
            },
            {
              "internalType": "uint256",
              "name": "feeTokenETHPrice",
              "type": "uint256"
            },
            {
              "internalType": "uint256",
              "name": "ethUSDPrice",
              "type": "uint256"
            },
            {
              "internalType": "uint256",
              "name": "gasEstimate",
              "type": "uint256"
            },
            {
              "components": [
                {
                  "internalType": "contract IERC20",
                  "name": "token",
                  "type": "address"
                },
                {
                  "internalType": "uint112",
                  "name": "amount",
                  "type": "uint112"
                }
              ],
              "internalType": "struct Types.TokenAmount",
              "name": "input",
              "type": "tuple"
            },
            {
              "components": [
                {
                  "internalType": "contract IERC20",
                  "name": "token",
                  "type": "address"
                },
                {
                  "internalType": "uint112",
                  "name": "amount",
                  "type": "uint112"
                }
              ],
              "internalType": "struct Types.TokenAmount",
              "name": "output",
              "type": "tuple"
            }
          ],
          "internalType": "struct Types.Order",
          "name": "order",
          "type": "tuple"
        },
        {
          "internalType": "contract IDexRouter",
          "name": "router",
          "type": "address"
        },
        {
          "internalType": "bytes",
          "name": "data",
          "type": "bytes"
        }
      ],
      "name": "fill",
      "outputs": [],
      "stateMutability": "nonpayable",
      "type": "function"
    },
    {
      "inputs": [],
      "name": "getConfig",
      "outputs": [
        {
          "components": [
            {
              "internalType": "address",
              "name": "devTeam",
              "type": "address"
            },
            {
              "internalType": "uint128",
              "name": "minFee",
              "type": "uint128"
            },
            {
              "internalType": "uint128",
              "name": "penaltyFee",
              "type": "uint128"
            },
            {
              "internalType": "uint8",
              "name": "lockoutBlocks",
              "type": "uint8"
            }
          ],
          "internalType": "struct Types.Config",
          "name": "",
          "type": "tuple"
        }
      ],
      "stateMutability": "view",
      "type": "function"
    },
    {
      "inputs": [],
      "name": "getDevTeam",
      "outputs": [
        {
          "internalType": "address",
          "name": "",
          "type": "address"
        }
      ],
      "stateMutability": "view",
      "type": "function"
    },
    {
      "inputs": [],
      "name": "getLockoutBlocks",
      "outputs": [
        {
          "internalType": "uint8",
          "name": "",
          "type": "uint8"
        }
      ],
      "stateMutability": "view",
      "type": "function"
    },
    {
      "inputs": [],
      "name": "getMinFee",
      "outputs": [
        {
          "internalType": "uint128",
          "name": "",
          "type": "uint128"
        }
      ],
      "stateMutability": "view",
      "type": "function"
    },
    {
      "inputs": [],
      "name": "getPenaltyFee",
      "outputs": [
        {
          "internalType": "uint128",
          "name": "",
          "type": "uint128"
        }
      ],
      "stateMutability": "view",
      "type": "function"
    },
    {
      "inputs": [
        {
          "internalType": "bytes32",
          "name": "role",
          "type": "bytes32"
        },
        {
          "internalType": "address",
          "name": "actor",
          "type": "address"
        }
      ],
      "name": "hasRole",
      "outputs": [
        {
          "internalType": "bool",
          "name": "",
          "type": "bool"
        }
      ],
      "stateMutability": "view",
      "type": "function"
    },
    {
      "inputs": [
        {
          "components": [
            {
              "internalType": "address",
              "name": "devTeam",
              "type": "address"
            },
            {
              "internalType": "uint128",
              "name": "minFee",
              "type": "uint128"
            },
            {
              "internalType": "uint128",
              "name": "penaltyFee",
              "type": "uint128"
            },
            {
              "internalType": "uint8",
              "name": "lockoutBlocks",
              "type": "uint8"
            }
          ],
          "internalType": "struct Types.Config",
          "name": "config",
          "type": "tuple"
        }
      ],
      "name": "initialize",
      "outputs": [],
      "stateMutability": "nonpayable",
      "type": "function"
    },
    {
      "inputs": [
        {
          "internalType": "bytes32",
          "name": "role",
          "type": "bytes32"
        },
        {
          "internalType": "address",
          "name": "actor",
          "type": "address"
        }
      ],
      "name": "revokeRole",
      "outputs": [],
      "stateMutability": "nonpayable",
      "type": "function"
    },
    {
      "inputs": [
        {
          "components": [
            {
              "internalType": "address",
              "name": "devTeam",
              "type": "address"
            },
            {
              "internalType": "uint128",
              "name": "minFee",
              "type": "uint128"
            },
            {
              "internalType": "uint128",
              "name": "penaltyFee",
              "type": "uint128"
            },
            {
              "internalType": "uint8",
              "name": "lockoutBlocks",
              "type": "uint8"
            }
          ],
          "internalType": "struct Types.Config",
          "name": "config",
          "type": "tuple"
        }
      ],
      "name": "setConfig",
      "outputs": [],
      "stateMutability": "nonpayable",
      "type": "function"
    },
    {
      "inputs": [
        {
          "internalType": "address",
          "name": "team",
          "type": "address"
        }
      ],
      "name": "setDevTeam",
      "outputs": [],
      "stateMutability": "nonpayable",
      "type": "function"
    },
    {
      "inputs": [
        {
          "internalType": "uint8",
          "name": "blocks",
          "type": "uint8"
        }
      ],
      "name": "setLockoutBlocks",
      "outputs": [],
      "stateMutability": "nonpayable",
      "type": "function"
    },
    {
      "inputs": [
        {
          "internalType": "uint128",
          "name": "fee",
          "type": "uint128"
        }
      ],
      "name": "setMinFee",
      "outputs": [],
      "stateMutability": "nonpayable",
      "type": "function"
    },
    {
      "inputs": [
        {
          "internalType": "uint128",
          "name": "fee",
          "type": "uint128"
        }
      ],
      "name": "setPenaltyFee",
      "outputs": [],
      "stateMutability": "nonpayable",
      "type": "function"
    },
    {
      "inputs": [
        {
          "internalType": "address",
          "name": "oldRelay",
          "type": "address"
        },
        {
          "internalType": "address",
          "name": "newRelay",
          "type": "address"
        }
      ],
      "name": "swapRelay",
      "outputs": [],
      "stateMutability": "nonpayable",
      "type": "function"
    },
    {
      "inputs": [
        {
          "internalType": "uint256",
          "name": "amount",
          "type": "uint256"
        }
      ],
      "name": "withdraw",
      "outputs": [],
      "stateMutability": "nonpayable",
      "type": "function"
    },
    {
      "stateMutability": "payable",
      "type": "receive"
    }
  ],
  "transactionHash": "0xcff0aa22c39dae0dfbcce549facedf24d6acf80d12a318224b93394085dde0fd",
  "args": [],
  "numDeployments": 2,
  "solcInputHash": "9e87d06f898d050c7b38b99cb6cd4986",
  "bytecode": "0x608060405234801561001057600080fd5b506139f8806100206000396000f3fe6080604052600436106101445760003560e01c806375b238fc116100b6578063c13da0181161006f578063c13da018146103be578063c3f909d4146103de578063d547741f14610400578063e63ab1e914610420578063e959b38a14610435578063f102669b146104555761018c565b806375b238fc146102f7578063775506101461030c5780638d3403fd14610321578063904cd9f51461034157806391d148541461036f578063b1cf4b0c1461039c5761018c565b80633f51e182116101085780633f51e1821461023357806340ee75bb146102535780634e1c6829146102735780635716d1ce146102935780635cf34bcf146102b35780636a9447b5146102d55761018c565b8063044218231461019157806327054df6146101bc5780632e1a7d4d146101d1578063334c3c65146101f35780633d191fa8146102135761018c565b3661018c57336001600160a01b03167f4103257eaac983ca79a70d28f90dfc4fa16b619bb0c17ee7cab0d4034c279624346040516101829190612fa1565b60405180910390a2005b600080fd5b34801561019d57600080fd5b506101a6610475565b6040516101b39190612fa1565b60405180910390f35b3480156101c857600080fd5b506101a6610487565b3480156101dd57600080fd5b506101f16101ec366004612db3565b6104ab565b005b3480156101ff57600080fd5b506101f161020e366004612bf9565b610596565b34801561021f57600080fd5b506101f161022e366004612d4c565b61063f565b34801561023f57600080fd5b506101f161024e366004612bf9565b610731565b34801561025f57600080fd5b506101f161026e366004612a05565b6107b7565b34801561027f57600080fd5b506101f161028e366004612d97565b610817565b34801561029f57600080fd5b506101f16102ae366004612bce565b610877565b3480156102bf57600080fd5b506102c8610a0d565b6040516101b39190613547565b3480156102e157600080fd5b506102ea610a2a565b6040516101b39190612eee565b34801561030357600080fd5b506101a6610a43565b34801561031857600080fd5b506102c8610a55565b34801561032d57600080fd5b506101f161033c366004612de3565b610a78565b34801561034d57600080fd5b5061036161035c366004612cc5565b610acf565b6040516101b3929190612f86565b34801561037b57600080fd5b5061038f61038a366004612baa565b610d7f565b6040516101b39190612f7b565b3480156103a857600080fd5b506103b1610e1c565b6040516101b3919061355b565b3480156103ca57600080fd5b506101f16103d9366004612ac7565b610e32565b3480156103ea57600080fd5b506103f3610e9c565b6040516101b39190613464565b34801561040c57600080fd5b506101f161041b366004612baa565b610f37565b34801561042c57600080fd5b506101a6610f81565b34801561044157600080fd5b506101f1610450366004612baa565b610fa5565b34801561046157600080fd5b506101f1610470366004612d97565b610fe5565b6000805160206138b283398151915281565b7fd95061bdf0c43d77b6cbe1c15072292976244ec8d5012de75baa36e42da4625e81565b6104c560008051602061395a83398151915261038a611051565b6104ea5760405162461bcd60e51b81526004016104e190613422565b60405180910390fd5b4781111561050a5760405162461bcd60e51b81526004016104e190613144565b610512611051565b6001600160a01b03166108fc829081150290604051600060405180830381858888f1935050505015801561054a573d6000803e3d6000fd5b50610553611051565b6001600160a01b03167faa21a47bc8f0df1a253be34a945b1d0a8f458e4da029c0ab59c1fee1e488c0668260405161058b9190612fa1565b60405180910390a250565b6105b060008051602061395a83398151915261038a611051565b6105cc5760405162461bcd60e51b81526004016104e190613422565b6105d4611056565b6040516321cab0c760e01b8152733CB48bAe312a70eEd5C46082a3C567aa029a1d13916321cab0c79161060c91908590600401613472565b60006040518083038186803b15801561062457600080fd5b505af4158015610638573d6000803e3d6000fd5b5050505050565b6106596000805160206138b283398151915261038a611051565b6106755760405162461bcd60e51b81526004016104e1906132fc565b61067d61107a565b5460ff161561069e5760405162461bcd60e51b81526004016104e190613065565b60016106a861107a565b805460ff191691151591909117905560006106c6619c405a9061109e565b905060006106d3866110aa565b905060006106e08761123e565b90506000806106f1838989896113f6565b91509150610700898584611557565b61070d8983838789611872565b5050505050600061071c61107a565b805460ff191691151591909117905550505050565b600061073b611e3d565b8054909150610100900460ff16806107555750805460ff16155b6107715760405162461bcd60e51b81526004016104e1906133ab565b8054610100900460ff1615801561079957815460ff1961ff0019909116610100171660011782555b6107a283611e61565b80156107b257815461ff00191682555b505050565b6107d160008051602061395a83398151915261038a611051565b6107ed5760405162461bcd60e51b81526004016104e190613422565b806107f6611056565b80546001600160a01b0319166001600160a01b039290921691909117905550565b61083160008051602061395a83398151915261038a611051565b61084d5760405162461bcd60e51b81526004016104e190613422565b80610856611056565b60010180546001600160801b03928316600160801b02921691909117905550565b6000826001600160a01b031663dd62ed3e610890611051565b306040518363ffffffff1660e01b81526004016108ae929190612f02565b60206040518083038186803b1580156108c657600080fd5b505afa1580156108da573d6000803e3d6000fd5b505050506040513d601f19601f820116820180604052508101906108fe9190612dcb565b9050818110156109205760405162461bcd60e51b81526004016104e1906132c5565b826001600160a01b03166323b872dd610937611051565b30856040518463ffffffff1660e01b815260040161095793929190612f1c565b602060405180830381600087803b15801561097157600080fd5b505af1158015610985573d6000803e3d6000fd5b505050506040513d601f19601f820116820180604052508101906109a99190612aff565b50604051632e1a7d4d60e01b81526001600160a01b03841690632e1a7d4d906109d6908590600401612fa1565b600060405180830381600087803b1580156109f057600080fd5b505af1158015610a04573d6000803e3d6000fd5b50505050505050565b6000610a17611056565b600101546001600160801b031690505b90565b6000610a34611056565b546001600160a01b0316905090565b60008051602061395a83398151915281565b6000610a5f611056565b60010154600160801b90046001600160801b0316919050565b610a9260008051602061395a83398151915261038a611051565b610aae5760405162461bcd60e51b81526004016104e190613422565b80610ab7611056565b600201805460ff191660ff9290921691909117905550565b60006060333014610af25760405162461bcd60e51b81526004016104e19061327c565b610b0a610b0436889003880188612d30565b86611edc565b60008080610b1a86880188612a21565b925092509250610b5f6040518060400160405280601a81526020017f417070726f76696e67207370656e6420666f722074617267657400000000000081525083611f5a565b610b6f60c08a0160a08b01612a05565b6001600160a01b031663095ea7b38360006040518363ffffffff1660e01b8152600401610b9d929190612f40565b602060405180830381600087803b158015610bb757600080fd5b505af1158015610bcb573d6000803e3d6000fd5b505050506040513d601f19601f82011682018060405250810190610bef9190612aff565b610bf857600080fd5b610c0860c08a0160a08b01612a05565b6001600160a01b031663095ea7b383610c2760e08d0160c08e01612d7d565b6040518363ffffffff1660e01b8152600401610c44929190612f59565b602060405180830381600087803b158015610c5e57600080fd5b505af1158015610c72573d6000803e3d6000fd5b505050506040513d601f19601f82011682018060405250810190610c969190612aff565b610c9f57600080fd5b610cd36040518060400160405280601281526020017110d85b1b1a5b99c81cddd85c15185c99d95d60721b81525084611f5a565b600080846001600160a01b03165a84604051610cef9190612ed2565b60006040518083038160008787f1925050503d8060008114610d2d576040519150601f19603f3d011682016040523d82523d6000602084013e610d32565b606091505b5091509150610d4081611f9f565b81610d5d5760405162461bcd60e51b81526004016104e1906131c0565b5060408051602081019091526000815290955093505050505b94509492505050565b6000610d8961107a565b604051630f40931b60e41b815273F8d429589060105C33d9AE1494808f644B8A75D69163f40931b091610dc3919087908790600401613445565b60206040518083038186803b158015610ddb57600080fd5b505af4158015610def573d6000803e3d6000fd5b505050506040513d601f19601f82011682018060405250810190610e139190612aff565b90505b92915050565b6000610e26611056565b6002015460ff16905090565b610e4c60008051602061395a83398151915261038a611051565b610e685760405162461bcd60e51b81526004016104e190613422565b610e806000805160206138b283398151915283610f37565b610e986000805160206138b283398151915282610fa5565b5050565b610ea4612802565b610eac611056565b604051636d73f0db60e01b8152733CB48bAe312a70eEd5C46082a3C567aa029a1d1391636d73f0db91610ee29190600401612fa1565b60806040518083038186803b158015610efa57600080fd5b505af4158015610f0e573d6000803e3d6000fd5b505050506040513d601f19601f82011682018060405250810190610f329190612c65565b905090565b610f5160008051602061395a83398151915261038a611051565b610f6d5760405162461bcd60e51b81526004016104e190613422565b610e988282610f7a61107a565b9190611fe2565b7f65d7a28e3265b37a6474929f336521b332c1681b933f6cb9f3376673440d862a81565b610fbf60008051602061395a83398151915261038a611051565b610fdb5760405162461bcd60e51b81526004016104e190613422565b610e988282612011565b610fff60008051602061395a83398151915261038a611051565b61101b5760405162461bcd60e51b81526004016104e190613422565b80611024611056565b60010180546fffffffffffffffffffffffffffffffff19166001600160801b039290921691909117905550565b600090565b7ff5b4be0a744c821d14f78bf26d55a308f420d78cebbfac103f2618fba32917b990565b7f3a83b1278d351a40f18bb9e8e77896e8c1dc812ffaed5ea63e0e837a6dae57e990565b6000610e138284613591565b6110b2612829565b60a08201515182516040516370a0823160e01b81526000926001600160a01b0316916370a08231916110e79190600401612eee565b60206040518083038186803b1580156110ff57600080fd5b505afa158015611113573d6000803e3d6000fd5b505050506040513d601f19601f820116820180604052508101906111379190612dcb565b90508260a00151602001516001600160701b031681101561116a5760405162461bcd60e51b81526004016104e190613233565b61117383612025565b61118f5760405162461bcd60e51b81526004016104e1906131e8565b60405180608001604052808281526020018460c00151600001516001600160a01b03166370a08231306040518263ffffffff1660e01b81526004016111d49190612eee565b60206040518083038186803b1580156111ec57600080fd5b505afa158015611200573d6000803e3d6000fd5b505050506040513d601f19601f820116820180604052508101906112249190612dcb565b81526020016000815260200160008152509150505b919050565b611246612851565b8160a00151600001516001600160a01b031682602001516001600160a01b031614156113f2576112aa6040518060400160405280601c81526020017f54616b696e67206665652066726f6d206f757470757420746f6b656e000000008152506120ca565b600080806112bc85866080015161210d565b90925090506112e66112ce838361109e565b60a0870151602001516001600160701b0316906123f7565b925061132b6040518060400160405280601081526020016f13db19081a5b9c1d5d08185b5bdd5b9d60821b8152508660a00151602001516001600160701b0316612403565b61135d6040518060400160405280601081526020016f13995dc81a5b9c1d5d08185b5bdd5b9d60821b81525084612403565b50506040518060e0016040528084600001516001600160a01b0316815260200184602001516001600160a01b0316815260200184604001518152602001846060015181526020018460800151815260200160405180604001604052808660a00151600001516001600160a01b03168152602001846001600160701b031681525081526020018460c00151815250915050611239565b5090565b600060603063904cd9f561140d619c405a906123f7565b888888886040518663ffffffff1660e01b81526004016114309493929190613486565b600060405180830381600088803b15801561144a57600080fd5b5087f19350505050801561148057506040513d6000823e601f3d908101601f1916820160405261147d9190810190612b19565b60015b61151c5761148c61378f565b806308c379a014156114e557506114a16137a6565b806114ac57506114e7565b600092508091506114df6040518060400160405280600a8152602001692330b4b62932b0b9b7b760b11b81525082612448565b50611517565b505b50506040805180820190915260138152722ab735b737bbb7103330b4b6103932b0b9b7b760691b60208201526000905b610d76565b8161154d5761154d6040518060400160405280600a8152602001692330b4b62932b0b9b7b760b11b81525082612448565b9092509050610d76565b60a08301515183516040516370a0823160e01b81526001600160a01b03909216916370a082319161158a91600401612eee565b60206040518083038186803b1580156115a257600080fd5b505afa1580156115b6573d6000803e3d6000fd5b505050506040513d601f19601f820116820180604052508101906115da9190612dcb565b82604001818152505061162c60405180604001604052806016815260200175115e1c1958dd1959081bdd5d1c1d5d08185b5bdd5b9d60521b8152508460c00151602001516001600160701b0316612403565b8061168f576116666040518060400160405280600f81526020016e24b7383aba103130b61030b33a32b960891b8152508360400151612403565b815160408301511461168a5760405162461bcd60e51b81526004016104e1906130f6565b6107b2565b60c0830151516040516370a0823160e01b81526001600160a01b03909116906370a08231906116c2903090600401612eee565b60206040518083038186803b1580156116da57600080fd5b505afa1580156116ee573d6000803e3d6000fd5b505050506040513d601f19601f820116820180604052508101906117129190612dcb565b60608301526040805180820190915260208082527f4f757470757420746f6b656e2062616c616e6365206265666f72652073776170818301528301516117589190612403565b61179b6040518060400160405280601981526020017f4f75747075742062616c616e63652061667465722073776170000000000000008152508360600151612403565b6117e460405180604001604052806016815260200175115e1c1958dd1959081bdd5d1c1d5d08185b5bdd5b9d60521b8152508460c00151602001516001600160701b0316612403565b8260c00151602001516001600160701b0316611811836020015184606001516123f790919063ffffffff16565b101561182f5760405162461bcd60e51b81526004016104e19061331f565b60a083015160200151604083015183516001600160701b0390921691611854916123f7565b11156107b25760405162461bcd60e51b81526004016104e190613189565b600061188b61ea606118855a85906123f7565b9061109e565b90506118bd6040518060400160405280600e81526020016d151bdd185b0819d85cc81d5cd95960921b81525082612403565b60006118c9823a61248d565b90506118f4604051806040016040528060078152602001664761732066656560c81b81525082612403565b600080611901898561210d565b915091508247101561197b5761192e6040518060600160405280603581526020016138ff603591396120ca565b611936611051565b6001600160a01b03167f4c0d6a438f19dfe41befe161c0bfdfca9f674028133bbaf37749b2d12f8f0dda8460405161196e9190612fa1565b60405180910390a2611a43565b6119b96040518060400160405280601c81526020017f5472616e73666572696e67206761732066656520746f2072656c6179000000008152506120ca565b6119c1611051565b6001600160a01b03166108fc849081150290604051600060405180830381858888f193505050501580156119f9573d6000803e3d6000fd5b50611a02611051565b6001600160a01b03167f91d09af90b128f3fb2907042440a531bca49791232cd8f59e1c629d96247d05784604051611a3a9190612fa1565b60405180910390a25b600088611bdf57829050611a7d6040518060400160405280600e81526020016d4661696c6564206761732066656560901b81525082612403565b8960a00151600001516001600160a01b03168a602001516001600160a01b03161415611b3e57611ac4604051806060016040528060408152602001613872604091396120ca565b8951611aec90611ad2611056565b5460208d01516001600160a01b0390811692911684612499565b89600001516001600160a01b03167f9f52afa9b861b0c4b200f58dace31f1f5776b94207a3047c075d6a087e25de5e898c6020015184604051611b3193929190612fe7565b60405180910390a2611bae565b611b5f60405180608001604052806049815260200161397a604991396120ca565b89600001516001600160a01b03167f9f52afa9b861b0c4b200f58dace31f1f5776b94207a3047c075d6a087e25de5e898c602001516000604051611ba593929190612fe7565b60405180910390a25b611bda6040518060400160405280600b81526020016a14ddd85c0819985a5b195960aa1b8152506120ca565b611e31565b611be9838361109e565b90506000611c08886020015189606001516123f790919063ffffffff16565b9050611c3f6040518060400160405280601381526020017211dc9bdcdcc81bdd5d1c1d5d08185b5bdd5b9d606a1b81525082612403565b60008b60a00151600001516001600160a01b03168c602001516001600160a01b03161415611cb957819050611c8c6040518060600160405280602d81526020016138d2602d913984612403565b8b51611cb490611c9a611056565b5460208f01516001600160a01b0390811692911686612499565b611d4a565b611cf86040518060400160405280601781526020017f5265647563696e67206f7574707574206279206665657300000000000000000081525084612403565b611d0282846123f7565b9050611d266040518060600160405280602681526020016139346026913984612403565b611d4a611d31611056565b5460208e01516001600160a01b039081169116856124f7565b611d896040518060400160405280601e81526020017f53656e64696e6720746f74616c206f757470757420746f20747261646572000081525082612403565b8b5160c08d015151611da7916001600160a01b0390911690836124f7565b8b600001516001600160a01b03167f3491be8ca1b3f4f9e7e74b9955a4600c2613ce85d639eaa123d5b733f59e93be8d60a0015160200151838f602001518989604051611df8959493929190613510565b60405180910390a2611e2e6040518060400160405280600d81526020016c046696e6973686564207377617609c1b8152506120ca565b50505b50505050505050505050565b7fd59dd79cfd4373c6c6547848d91fc2ea67c8aec9053f7028828216c5af1d474190565b611e69611056565b6040516321cab0c760e01b8152733CB48bAe312a70eEd5C46082a3C567aa029a1d13916321cab0c791611ea191908590600401613472565b60006040518083038186803b158015611eb957600080fd5b505af4158015611ecd573d6000803e3d6000fd5b50505050611ed9612516565b50565b611f2c6040518060400160405280601e81526020017f5472616e73666572696e6720696e70757420666f722074726164696e673a00008152508360a00151602001516001600160701b0316612403565b815160a083015160208101519051610e98926001600160a01b039091169130906001600160701b0316612499565b610e988282604051602401611f70929190612fbd565b60408051601f198184030181529190526020810180516001600160e01b031663319af33360e01b1790526125df565b611ed981604051602401611fb39190612faa565b60408051601f198184030181529190526020810180516001600160e01b03166305f3bfab60e11b1790526125df565b60009182526001909201602090815260408083206001600160a01b03909416835292905220805460ff19169055565b610e98828261201e61107a565b9190612600565b60a0810151602081015190518251604051636eb1769f60e11b815260009384936001600160701b03909116926001600160a01b039091169163dd62ed3e91612071913090600401612f02565b60206040518083038186803b15801561208957600080fd5b505afa15801561209d573d6000803e3d6000fd5b505050506040513d601f19601f820116820180604052508101906120c19190612dcb565b10159392505050565b611ed9816040516024016120de9190612faa565b60408051601f198184030181529190526020810180516001600160e01b031663104c13eb60e21b1790526125df565b60008061214e6040518060400160405280601981526020017f2d2d2d2d20436f6d707574696e672046656573202d2d2d2d2d000000000000008152506120ca565b600061215a843a6136d4565b905061219060405180604001604052806012815260200171115cdd1a5b585d19590819d85cc818dbdcdd60721b81525082612403565b600085602001516001600160a01b031663313ce5676040518163ffffffff1660e01b815260040160206040518083038186803b1580156121cf57600080fd5b505afa1580156121e3573d6000803e3d6000fd5b505050506040513d601f19601f820116820180604052508101906122079190612dff565b60ff169050612231866040015161222b83600a6122249190613606565b859061248d565b90612633565b93506122726040518060400160405280601881526020017f47617320706f7274696f6e20696e2066656520746f6b656e000000000000000081525085612403565b6122ae604051806040016040528060168152602001754f72646572206e61746976652055534420707269636560501b8152508760600151612403565b6122f16040518060400160405280601c81526020017f4f726465722066656520746f6b656e206e6174697665207072696365000000008152508760400151612403565b600061230e8760400151886060015161248d90919063ffffffff16565b905061234860405180604001604052806016815260200175119959481d1bdad95b881c1c9a58d9481a5b881554d160521b81525082612403565b6123808161222b61235a856024613591565b61236590600a613606565b61236d611056565b600101546001600160801b03169061248d565b93506123af6040518060400160405280600b81526020016a44657869626c652066656560a81b81525085612403565b6123ed6040518060400160405280601a81526020017f2d2d2d2d20456e6420636f6d707574652066656573202d2d2d2d0000000000008152506120ca565b5050509250929050565b6000610e1382846136f3565b610e988282604051602401612419929190613043565b60408051601f198184030181529190526020810180516001600160e01b0316632d839cb360e21b1790526125df565b610e98828260405160240161245e929190613015565b60408051601f198184030181529190526020810180516001600160e01b0316634b5c427760e01b1790526125df565b6000610e1382846136d4565b6124f1846323b872dd60e01b8585856040516024016124ba93929190612f1c565b60408051601f198184030181529190526020810180516001600160e01b03166001600160e01b03199093169290921790915261263f565b50505050565b6107b28363a9059cbb60e01b84846040516024016124ba929190612f40565b6000612520611e3d565b8054909150610100900460ff168061253a5750805460ff16155b6125565760405162461bcd60e51b81526004016104e1906133ab565b8054610100900460ff1615801561257e57815460ff1961ff0019909116610100171660011782555b6000612588611051565b90506125a260008051602061395a83398151915282612011565b6125cc7f65d7a28e3265b37a6474929f336521b332c1681b933f6cb9f3376673440d862a82612011565b508015610e985750805461ff0019169055565b80516a636f6e736f6c652e6c6f67602083016000808483855afa5050505050565b60009182526001928301602090815260408084206001600160a01b0390931684529190529020805460ff19169091179055565b6000610e1382846135a9565b6000612694826040518060400160405280602081526020017f5361666545524332303a206c6f772d6c6576656c2063616c6c206661696c6564815250856001600160a01b03166126ce9092919063ffffffff16565b8051909150156107b257808060200190518101906126b29190612aff565b6107b25760405162461bcd60e51b81526004016104e1906133d8565b60606126dd84846000856126e7565b90505b9392505050565b6060824710156127095760405162461bcd60e51b81526004016104e1906130b0565b600080866001600160a01b031685876040516127259190612ed2565b60006040518083038185875af1925050503d8060008114612762576040519150601f19603f3d011682016040523d82523d6000602084013e612767565b606091505b509150915061277887838387612785565b925050505b949350505050565b606083156127bf5782516127b85761279c856127c9565b6127b85760405162461bcd60e51b81526004016104e190613374565b508161277d565b61277d83836127d8565b6001600160a01b03163b151590565b8151156127e85781518083602001fd5b8060405162461bcd60e51b81526004016104e19190612faa565b60408051608081018252600080825260208201819052918101829052606081019190915290565b6040518060800160405280600081526020016000815260200160008152602001600081525090565b6040518060e0016040528060006001600160a01b0316815260200160006001600160a01b031681526020016000815260200160008152602001600081526020016128996128ab565b81526020016128a66128ab565b905290565b604080518082019091526000808252602082015290565b8051801515811461123957600080fd5b60008083601f8401126128e3578182fd5b50813567ffffffffffffffff8111156128fa578182fd5b60208301915083602082850101111561291257600080fd5b9250929050565b6000610120828403121561292b578081fd5b60405161293960e082613736565b809150823561294781613838565b8152602083013561295781613838565b806020830152506040830135604082015260608301356060820152608083013560808201526129898460a085016129a7565b60a082015261299b8460e085016129a7565b60c08201525092915050565b6000604082840312156129b8578081fd5b6040516129c6604082613736565b80915082356129d481613838565b81526129e2602084016129ee565b60208201525092915050565b80356001600160701b038116811461123957600080fd5b600060208284031215612a16578081fd5b81356126e081613838565b600080600060608486031215612a35578182fd5b8335612a4081613838565b92506020840135612a5081613838565b9150604084013567ffffffffffffffff811115612a6b578182fd5b8401601f81018613612a7b578182fd5b8035612a8681613569565b604051612a938282613736565b828152886020848601011115612aa7578485fd5b826020850160208301378460208483010152809450505050509250925092565b60008060408385031215612ad9578182fd5b8235612ae481613838565b91506020830135612af481613838565b809150509250929050565b600060208284031215612b10578081fd5b610e13826128c2565b60008060408385031215612b2b578182fd5b612b34836128c2565b9150602083015167ffffffffffffffff811115612b4f578182fd5b8301601f81018513612b5f578182fd5b8051612b6a81613569565b604051612b778282613736565b828152876020848601011115612b8b578485fd5b612b9c83602083016020870161370a565b809450505050509250929050565b60008060408385031215612bbc578182fd5b823591506020830135612af481613838565b60008060408385031215612be0578182fd5b8235612beb81613838565b946020939093013593505050565b600060808284031215612c0a578081fd5b604051612c18608082613736565b8235612c2381613838565b81526020830135612c338161384d565b60208201526040830135612c468161384d565b60408201526060830135612c5981613862565b60608201529392505050565b600060808284031215612c76578081fd5b604051612c84608082613736565b8251612c8f81613838565b81526020830151612c9f8161384d565b60208201526040830151612cb28161384d565b60408201526060830151612c5981613862565b600080600080848603610160811215612cdc578283fd5b61012080821215612ceb578384fd5b8695508501359050612cfc81613838565b925061014085013567ffffffffffffffff811115612d18578283fd5b612d24878288016128d2565b95989497509550505050565b60006101208284031215612d42578081fd5b610e138383612919565b6000806000806101608587031215612d62578182fd5b612d6c8686612919565b9350610120850135612cfc81613838565b600060208284031215612d8e578081fd5b610e13826129ee565b600060208284031215612da8578081fd5b81356126e08161384d565b600060208284031215612dc4578081fd5b5035919050565b600060208284031215612ddc578081fd5b5051919050565b600060208284031215612df4578081fd5b81356126e081613862565b600060208284031215612e10578081fd5b81516126e081613862565b60008284528282602086013780602084860101526020601f19601f85011685010190509392505050565b60008151808452612e5d81602086016020860161370a565b601f01601f19169290920160200192915050565b80516001600160a01b031682526020808201516001600160801b03908116918401919091526040808301519091169083015260609081015160ff16910152565b80516001600160a01b031682526020908101516001600160701b0316910152565b60008251612ee481846020870161370a565b9190910192915050565b6001600160a01b0391909116815260200190565b6001600160a01b0392831681529116602082015260400190565b6001600160a01b039384168152919092166020820152604081019190915260600190565b6001600160a01b03929092168252602082015260400190565b6001600160a01b039290921682526001600160701b0316602082015260400190565b901515815260200190565b60008315158252604060208301526126dd6040830184612e45565b90815260200190565b600060208252610e136020830184612e45565b600060408252612fd06040830185612e45565b905060018060a01b03831660208301529392505050565b600060608252612ffa6060830186612e45565b6001600160a01b039490941660208301525060400152919050565b6000604082526130286040830185612e45565b828103602084015261303a8185612e45565b95945050505050565b6000604082526130566040830185612e45565b90508260208301529392505050565b6020808252602b908201527f417474656d7074696e6720746f2072652d656e7465722066756e6374696f6e2060408201526a7265637572736976656c7960a81b606082015260800190565b60208082526026908201527f416464726573733a20696e73756666696369656e742062616c616e636520666f6040820152651c8818d85b1b60d21b606082015260800190565b6020808252602e908201527f6661696c656420747261646520616374696f6e20646964206e6f74207265667560408201526d6e6420696e7075742066756e647360901b606082015260800190565b60208082526025908201527f496e73756666696369656e742062616c616e636520746f206d616b65207472616040820152643739b332b960d91b606082015260800190565b6020808252601a908201527f5573656420746f6f206d616e7920696e70757420746f6b656e73000000000000604082015260600190565b6020808252600e908201526d04661696c656420746f20737761760941b604082015260600190565b6020808252602b908201527f496e73756666696369656e74207370656e6420616c6c6f77616e6365206f6e2060408201526a34b7383aba103a37b5b2b760a91b606082015260800190565b60208082526029908201527f496e73756666696369656e7420696e70757420746f6b656e2062616c616e636560408201526820746f20747261646560b81b606082015260800190565b60208082526029908201527f43616e206f6e6c792062652063616c6c656420627920736574746c656d656e746040820152680818dbdb9d1c9858dd60ba1b606082015260800190565b6020808252601c908201527f496e73756666696369656e74207370656e6420616c6c6f77616e636500000000604082015260600190565b6020808252600990820152684e6f742072656c617960b81b604082015260600190565b60208082526035908201527f547261646520616374696f6e20646964206e6f74207472616e73666572206f756040820152743a383aba103a37b5b2b739903a37903a3930b232b960591b606082015260800190565b6020808252601d908201527f416464726573733a2063616c6c20746f206e6f6e2d636f6e7472616374000000604082015260600190565b602080825260139082015272105b1c9958591e481a5b9a5d1a585b1a5e9959606a1b604082015260600190565b6020808252602a908201527f5361666545524332303a204552433230206f7065726174696f6e20646964206e6040820152691bdd081cdd58d8d9595960b21b606082015260800190565b6020808252600990820152682737ba1030b236b4b760b91b604082015260600190565b92835260208301919091526001600160a01b0316604082015260600190565b60808101610e168284612e71565b82815260a081016126e06020830184612e71565b600061016060018060a01b0380885116845280602089015116602085015260408801516040850152606088015160608501526080880151608085015260a08801516134d460a0860182612eb1565b5060c08801516134e760e0860182612eb1565b50861661012084015261014083018190526135058184018587612e1b565b979650505050505050565b6001600160701b0395909516855260208501939093526001600160a01b039190911660408401526060830152608082015260a00190565b6001600160801b0391909116815260200190565b60ff91909116815260200190565b600067ffffffffffffffff82111561358357613583613779565b50601f01601f191660200190565b600082198211156135a4576135a4613763565b500190565b6000826135c457634e487b7160e01b81526012600452602481fd5b500490565b80825b60018086116135db5750610d76565b8187048211156135ed576135ed613763565b808616156135fa57918102915b9490941c9380026135cc565b6000610e13600019848460008261361f575060016126e0565b8161362c575060006126e0565b8160018114613642576002811461364c57613679565b60019150506126e0565b60ff84111561365d5761365d613763565b6001841b91508482111561367357613673613763565b506126e0565b5060208310610133831016604e8410600b84101617156136ac575081810a838111156136a7576136a7613763565b6126e0565b6136b984848460016135c9565b8086048211156136cb576136cb613763565b02949350505050565b60008160001904831182151516156136ee576136ee613763565b500290565b60008282101561370557613705613763565b500390565b60005b8381101561372557818101518382015260200161370d565b838111156124f15750506000910152565b601f8201601f1916810167ffffffffffffffff8111828210171561375c5761375c613779565b6040525050565b634e487b7160e01b600052601160045260246000fd5b634e487b7160e01b600052604160045260246000fd5b600060033d1115610a2757600481823e5160e01c90565b600060443d10156137b657610a27565b6040516003193d81016004833e81513d67ffffffffffffffff81602484011181841117156137e8575050505050610a27565b828501915081518181111561380257505050505050610a27565b843d870101602082850101111561381e57505050505050610a27565b61382d60208286010187613736565b509094505050505090565b6001600160a01b0381168114611ed957600080fd5b6001600160801b0381168114611ed957600080fd5b60ff81168114611ed957600080fdfe5472616e7366657272696e67207061727469616c20696e70757420746f6b656e20746f206465767465616d20666f72206661696c757265206761732066656573077a1d526a4ce8a773632ab13b4fbbf1fcc954c3dab26cd27ea0e2a6750da5d75472616e7366657272696e6720666565732066726f6d20696e70757420746f6b656e20746f206465765465616d43616e6e6f74207265696d62757273652072656c61792073696e636520646f206e6f74206861766520656e6f7567682066756e647353656e64696e6720666565732066726f6d206f757470757420746f6b656e20746f207465616da49807205ce4d355092ef5a8a18f56e8913cf4a201fbe287825b095693c2177546656520746f6b656e206973206f75747075743b207468657265666f72652063616e6e6f74207265696d6275727365207465616d20666f72206661696c757265206761732066656573a264697066735822122004a3a59bc569768da7210960a1864605d9d38e99a11ef4563b4ea9945a859d9664736f6c63430008010033",
  "deployedBytecode": "0x6080604052600436106101445760003560e01c806375b238fc116100b6578063c13da0181161006f578063c13da018146103be578063c3f909d4146103de578063d547741f14610400578063e63ab1e914610420578063e959b38a14610435578063f102669b146104555761018c565b806375b238fc146102f7578063775506101461030c5780638d3403fd14610321578063904cd9f51461034157806391d148541461036f578063b1cf4b0c1461039c5761018c565b80633f51e182116101085780633f51e1821461023357806340ee75bb146102535780634e1c6829146102735780635716d1ce146102935780635cf34bcf146102b35780636a9447b5146102d55761018c565b8063044218231461019157806327054df6146101bc5780632e1a7d4d146101d1578063334c3c65146101f35780633d191fa8146102135761018c565b3661018c57336001600160a01b03167f4103257eaac983ca79a70d28f90dfc4fa16b619bb0c17ee7cab0d4034c279624346040516101829190612fa1565b60405180910390a2005b600080fd5b34801561019d57600080fd5b506101a6610475565b6040516101b39190612fa1565b60405180910390f35b3480156101c857600080fd5b506101a6610487565b3480156101dd57600080fd5b506101f16101ec366004612db3565b6104ab565b005b3480156101ff57600080fd5b506101f161020e366004612bf9565b610596565b34801561021f57600080fd5b506101f161022e366004612d4c565b61063f565b34801561023f57600080fd5b506101f161024e366004612bf9565b610731565b34801561025f57600080fd5b506101f161026e366004612a05565b6107b7565b34801561027f57600080fd5b506101f161028e366004612d97565b610817565b34801561029f57600080fd5b506101f16102ae366004612bce565b610877565b3480156102bf57600080fd5b506102c8610a0d565b6040516101b39190613547565b3480156102e157600080fd5b506102ea610a2a565b6040516101b39190612eee565b34801561030357600080fd5b506101a6610a43565b34801561031857600080fd5b506102c8610a55565b34801561032d57600080fd5b506101f161033c366004612de3565b610a78565b34801561034d57600080fd5b5061036161035c366004612cc5565b610acf565b6040516101b3929190612f86565b34801561037b57600080fd5b5061038f61038a366004612baa565b610d7f565b6040516101b39190612f7b565b3480156103a857600080fd5b506103b1610e1c565b6040516101b3919061355b565b3480156103ca57600080fd5b506101f16103d9366004612ac7565b610e32565b3480156103ea57600080fd5b506103f3610e9c565b6040516101b39190613464565b34801561040c57600080fd5b506101f161041b366004612baa565b610f37565b34801561042c57600080fd5b506101a6610f81565b34801561044157600080fd5b506101f1610450366004612baa565b610fa5565b34801561046157600080fd5b506101f1610470366004612d97565b610fe5565b6000805160206138b283398151915281565b7fd95061bdf0c43d77b6cbe1c15072292976244ec8d5012de75baa36e42da4625e81565b6104c560008051602061395a83398151915261038a611051565b6104ea5760405162461bcd60e51b81526004016104e190613422565b60405180910390fd5b4781111561050a5760405162461bcd60e51b81526004016104e190613144565b610512611051565b6001600160a01b03166108fc829081150290604051600060405180830381858888f1935050505015801561054a573d6000803e3d6000fd5b50610553611051565b6001600160a01b03167faa21a47bc8f0df1a253be34a945b1d0a8f458e4da029c0ab59c1fee1e488c0668260405161058b9190612fa1565b60405180910390a250565b6105b060008051602061395a83398151915261038a611051565b6105cc5760405162461bcd60e51b81526004016104e190613422565b6105d4611056565b6040516321cab0c760e01b815273__$015d7794271f690550e5fe4793e4b79169$__916321cab0c79161060c91908590600401613472565b60006040518083038186803b15801561062457600080fd5b505af4158015610638573d6000803e3d6000fd5b5050505050565b6106596000805160206138b283398151915261038a611051565b6106755760405162461bcd60e51b81526004016104e1906132fc565b61067d61107a565b5460ff161561069e5760405162461bcd60e51b81526004016104e190613065565b60016106a861107a565b805460ff191691151591909117905560006106c6619c405a9061109e565b905060006106d3866110aa565b905060006106e08761123e565b90506000806106f1838989896113f6565b91509150610700898584611557565b61070d8983838789611872565b5050505050600061071c61107a565b805460ff191691151591909117905550505050565b600061073b611e3d565b8054909150610100900460ff16806107555750805460ff16155b6107715760405162461bcd60e51b81526004016104e1906133ab565b8054610100900460ff1615801561079957815460ff1961ff0019909116610100171660011782555b6107a283611e61565b80156107b257815461ff00191682555b505050565b6107d160008051602061395a83398151915261038a611051565b6107ed5760405162461bcd60e51b81526004016104e190613422565b806107f6611056565b80546001600160a01b0319166001600160a01b039290921691909117905550565b61083160008051602061395a83398151915261038a611051565b61084d5760405162461bcd60e51b81526004016104e190613422565b80610856611056565b60010180546001600160801b03928316600160801b02921691909117905550565b6000826001600160a01b031663dd62ed3e610890611051565b306040518363ffffffff1660e01b81526004016108ae929190612f02565b60206040518083038186803b1580156108c657600080fd5b505afa1580156108da573d6000803e3d6000fd5b505050506040513d601f19601f820116820180604052508101906108fe9190612dcb565b9050818110156109205760405162461bcd60e51b81526004016104e1906132c5565b826001600160a01b03166323b872dd610937611051565b30856040518463ffffffff1660e01b815260040161095793929190612f1c565b602060405180830381600087803b15801561097157600080fd5b505af1158015610985573d6000803e3d6000fd5b505050506040513d601f19601f820116820180604052508101906109a99190612aff565b50604051632e1a7d4d60e01b81526001600160a01b03841690632e1a7d4d906109d6908590600401612fa1565b600060405180830381600087803b1580156109f057600080fd5b505af1158015610a04573d6000803e3d6000fd5b50505050505050565b6000610a17611056565b600101546001600160801b031690505b90565b6000610a34611056565b546001600160a01b0316905090565b60008051602061395a83398151915281565b6000610a5f611056565b60010154600160801b90046001600160801b0316919050565b610a9260008051602061395a83398151915261038a611051565b610aae5760405162461bcd60e51b81526004016104e190613422565b80610ab7611056565b600201805460ff191660ff9290921691909117905550565b60006060333014610af25760405162461bcd60e51b81526004016104e19061327c565b610b0a610b0436889003880188612d30565b86611edc565b60008080610b1a86880188612a21565b925092509250610b5f6040518060400160405280601a81526020017f417070726f76696e67207370656e6420666f722074617267657400000000000081525083611f5a565b610b6f60c08a0160a08b01612a05565b6001600160a01b031663095ea7b38360006040518363ffffffff1660e01b8152600401610b9d929190612f40565b602060405180830381600087803b158015610bb757600080fd5b505af1158015610bcb573d6000803e3d6000fd5b505050506040513d601f19601f82011682018060405250810190610bef9190612aff565b610bf857600080fd5b610c0860c08a0160a08b01612a05565b6001600160a01b031663095ea7b383610c2760e08d0160c08e01612d7d565b6040518363ffffffff1660e01b8152600401610c44929190612f59565b602060405180830381600087803b158015610c5e57600080fd5b505af1158015610c72573d6000803e3d6000fd5b505050506040513d601f19601f82011682018060405250810190610c969190612aff565b610c9f57600080fd5b610cd36040518060400160405280601281526020017110d85b1b1a5b99c81cddd85c15185c99d95d60721b81525084611f5a565b600080846001600160a01b03165a84604051610cef9190612ed2565b60006040518083038160008787f1925050503d8060008114610d2d576040519150601f19603f3d011682016040523d82523d6000602084013e610d32565b606091505b5091509150610d4081611f9f565b81610d5d5760405162461bcd60e51b81526004016104e1906131c0565b5060408051602081019091526000815290955093505050505b94509492505050565b6000610d8961107a565b604051630f40931b60e41b815273__$712f9bd20561de4f0bfbc1442284f16fb4$__9163f40931b091610dc3919087908790600401613445565b60206040518083038186803b158015610ddb57600080fd5b505af4158015610def573d6000803e3d6000fd5b505050506040513d601f19601f82011682018060405250810190610e139190612aff565b90505b92915050565b6000610e26611056565b6002015460ff16905090565b610e4c60008051602061395a83398151915261038a611051565b610e685760405162461bcd60e51b81526004016104e190613422565b610e806000805160206138b283398151915283610f37565b610e986000805160206138b283398151915282610fa5565b5050565b610ea4612802565b610eac611056565b604051636d73f0db60e01b815273__$015d7794271f690550e5fe4793e4b79169$__91636d73f0db91610ee29190600401612fa1565b60806040518083038186803b158015610efa57600080fd5b505af4158015610f0e573d6000803e3d6000fd5b505050506040513d601f19601f82011682018060405250810190610f329190612c65565b905090565b610f5160008051602061395a83398151915261038a611051565b610f6d5760405162461bcd60e51b81526004016104e190613422565b610e988282610f7a61107a565b9190611fe2565b7f65d7a28e3265b37a6474929f336521b332c1681b933f6cb9f3376673440d862a81565b610fbf60008051602061395a83398151915261038a611051565b610fdb5760405162461bcd60e51b81526004016104e190613422565b610e988282612011565b610fff60008051602061395a83398151915261038a611051565b61101b5760405162461bcd60e51b81526004016104e190613422565b80611024611056565b60010180546fffffffffffffffffffffffffffffffff19166001600160801b039290921691909117905550565b600090565b7ff5b4be0a744c821d14f78bf26d55a308f420d78cebbfac103f2618fba32917b990565b7f3a83b1278d351a40f18bb9e8e77896e8c1dc812ffaed5ea63e0e837a6dae57e990565b6000610e138284613591565b6110b2612829565b60a08201515182516040516370a0823160e01b81526000926001600160a01b0316916370a08231916110e79190600401612eee565b60206040518083038186803b1580156110ff57600080fd5b505afa158015611113573d6000803e3d6000fd5b505050506040513d601f19601f820116820180604052508101906111379190612dcb565b90508260a00151602001516001600160701b031681101561116a5760405162461bcd60e51b81526004016104e190613233565b61117383612025565b61118f5760405162461bcd60e51b81526004016104e1906131e8565b60405180608001604052808281526020018460c00151600001516001600160a01b03166370a08231306040518263ffffffff1660e01b81526004016111d49190612eee565b60206040518083038186803b1580156111ec57600080fd5b505afa158015611200573d6000803e3d6000fd5b505050506040513d601f19601f820116820180604052508101906112249190612dcb565b81526020016000815260200160008152509150505b919050565b611246612851565b8160a00151600001516001600160a01b031682602001516001600160a01b031614156113f2576112aa6040518060400160405280601c81526020017f54616b696e67206665652066726f6d206f757470757420746f6b656e000000008152506120ca565b600080806112bc85866080015161210d565b90925090506112e66112ce838361109e565b60a0870151602001516001600160701b0316906123f7565b925061132b6040518060400160405280601081526020016f13db19081a5b9c1d5d08185b5bdd5b9d60821b8152508660a00151602001516001600160701b0316612403565b61135d6040518060400160405280601081526020016f13995dc81a5b9c1d5d08185b5bdd5b9d60821b81525084612403565b50506040518060e0016040528084600001516001600160a01b0316815260200184602001516001600160a01b0316815260200184604001518152602001846060015181526020018460800151815260200160405180604001604052808660a00151600001516001600160a01b03168152602001846001600160701b031681525081526020018460c00151815250915050611239565b5090565b600060603063904cd9f561140d619c405a906123f7565b888888886040518663ffffffff1660e01b81526004016114309493929190613486565b600060405180830381600088803b15801561144a57600080fd5b5087f19350505050801561148057506040513d6000823e601f3d908101601f1916820160405261147d9190810190612b19565b60015b61151c5761148c61378f565b806308c379a014156114e557506114a16137a6565b806114ac57506114e7565b600092508091506114df6040518060400160405280600a8152602001692330b4b62932b0b9b7b760b11b81525082612448565b50611517565b505b50506040805180820190915260138152722ab735b737bbb7103330b4b6103932b0b9b7b760691b60208201526000905b610d76565b8161154d5761154d6040518060400160405280600a8152602001692330b4b62932b0b9b7b760b11b81525082612448565b9092509050610d76565b60a08301515183516040516370a0823160e01b81526001600160a01b03909216916370a082319161158a91600401612eee565b60206040518083038186803b1580156115a257600080fd5b505afa1580156115b6573d6000803e3d6000fd5b505050506040513d601f19601f820116820180604052508101906115da9190612dcb565b82604001818152505061162c60405180604001604052806016815260200175115e1c1958dd1959081bdd5d1c1d5d08185b5bdd5b9d60521b8152508460c00151602001516001600160701b0316612403565b8061168f576116666040518060400160405280600f81526020016e24b7383aba103130b61030b33a32b960891b8152508360400151612403565b815160408301511461168a5760405162461bcd60e51b81526004016104e1906130f6565b6107b2565b60c0830151516040516370a0823160e01b81526001600160a01b03909116906370a08231906116c2903090600401612eee565b60206040518083038186803b1580156116da57600080fd5b505afa1580156116ee573d6000803e3d6000fd5b505050506040513d601f19601f820116820180604052508101906117129190612dcb565b60608301526040805180820190915260208082527f4f757470757420746f6b656e2062616c616e6365206265666f72652073776170818301528301516117589190612403565b61179b6040518060400160405280601981526020017f4f75747075742062616c616e63652061667465722073776170000000000000008152508360600151612403565b6117e460405180604001604052806016815260200175115e1c1958dd1959081bdd5d1c1d5d08185b5bdd5b9d60521b8152508460c00151602001516001600160701b0316612403565b8260c00151602001516001600160701b0316611811836020015184606001516123f790919063ffffffff16565b101561182f5760405162461bcd60e51b81526004016104e19061331f565b60a083015160200151604083015183516001600160701b0390921691611854916123f7565b11156107b25760405162461bcd60e51b81526004016104e190613189565b600061188b61ea606118855a85906123f7565b9061109e565b90506118bd6040518060400160405280600e81526020016d151bdd185b0819d85cc81d5cd95960921b81525082612403565b60006118c9823a61248d565b90506118f4604051806040016040528060078152602001664761732066656560c81b81525082612403565b600080611901898561210d565b915091508247101561197b5761192e6040518060600160405280603581526020016138ff603591396120ca565b611936611051565b6001600160a01b03167f4c0d6a438f19dfe41befe161c0bfdfca9f674028133bbaf37749b2d12f8f0dda8460405161196e9190612fa1565b60405180910390a2611a43565b6119b96040518060400160405280601c81526020017f5472616e73666572696e67206761732066656520746f2072656c6179000000008152506120ca565b6119c1611051565b6001600160a01b03166108fc849081150290604051600060405180830381858888f193505050501580156119f9573d6000803e3d6000fd5b50611a02611051565b6001600160a01b03167f91d09af90b128f3fb2907042440a531bca49791232cd8f59e1c629d96247d05784604051611a3a9190612fa1565b60405180910390a25b600088611bdf57829050611a7d6040518060400160405280600e81526020016d4661696c6564206761732066656560901b81525082612403565b8960a00151600001516001600160a01b03168a602001516001600160a01b03161415611b3e57611ac4604051806060016040528060408152602001613872604091396120ca565b8951611aec90611ad2611056565b5460208d01516001600160a01b0390811692911684612499565b89600001516001600160a01b03167f9f52afa9b861b0c4b200f58dace31f1f5776b94207a3047c075d6a087e25de5e898c6020015184604051611b3193929190612fe7565b60405180910390a2611bae565b611b5f60405180608001604052806049815260200161397a604991396120ca565b89600001516001600160a01b03167f9f52afa9b861b0c4b200f58dace31f1f5776b94207a3047c075d6a087e25de5e898c602001516000604051611ba593929190612fe7565b60405180910390a25b611bda6040518060400160405280600b81526020016a14ddd85c0819985a5b195960aa1b8152506120ca565b611e31565b611be9838361109e565b90506000611c08886020015189606001516123f790919063ffffffff16565b9050611c3f6040518060400160405280601381526020017211dc9bdcdcc81bdd5d1c1d5d08185b5bdd5b9d606a1b81525082612403565b60008b60a00151600001516001600160a01b03168c602001516001600160a01b03161415611cb957819050611c8c6040518060600160405280602d81526020016138d2602d913984612403565b8b51611cb490611c9a611056565b5460208f01516001600160a01b0390811692911686612499565b611d4a565b611cf86040518060400160405280601781526020017f5265647563696e67206f7574707574206279206665657300000000000000000081525084612403565b611d0282846123f7565b9050611d266040518060600160405280602681526020016139346026913984612403565b611d4a611d31611056565b5460208e01516001600160a01b039081169116856124f7565b611d896040518060400160405280601e81526020017f53656e64696e6720746f74616c206f757470757420746f20747261646572000081525082612403565b8b5160c08d015151611da7916001600160a01b0390911690836124f7565b8b600001516001600160a01b03167f3491be8ca1b3f4f9e7e74b9955a4600c2613ce85d639eaa123d5b733f59e93be8d60a0015160200151838f602001518989604051611df8959493929190613510565b60405180910390a2611e2e6040518060400160405280600d81526020016c046696e6973686564207377617609c1b8152506120ca565b50505b50505050505050505050565b7fd59dd79cfd4373c6c6547848d91fc2ea67c8aec9053f7028828216c5af1d474190565b611e69611056565b6040516321cab0c760e01b815273__$015d7794271f690550e5fe4793e4b79169$__916321cab0c791611ea191908590600401613472565b60006040518083038186803b158015611eb957600080fd5b505af4158015611ecd573d6000803e3d6000fd5b50505050611ed9612516565b50565b611f2c6040518060400160405280601e81526020017f5472616e73666572696e6720696e70757420666f722074726164696e673a00008152508360a00151602001516001600160701b0316612403565b815160a083015160208101519051610e98926001600160a01b039091169130906001600160701b0316612499565b610e988282604051602401611f70929190612fbd565b60408051601f198184030181529190526020810180516001600160e01b031663319af33360e01b1790526125df565b611ed981604051602401611fb39190612faa565b60408051601f198184030181529190526020810180516001600160e01b03166305f3bfab60e11b1790526125df565b60009182526001909201602090815260408083206001600160a01b03909416835292905220805460ff19169055565b610e98828261201e61107a565b9190612600565b60a0810151602081015190518251604051636eb1769f60e11b815260009384936001600160701b03909116926001600160a01b039091169163dd62ed3e91612071913090600401612f02565b60206040518083038186803b15801561208957600080fd5b505afa15801561209d573d6000803e3d6000fd5b505050506040513d601f19601f820116820180604052508101906120c19190612dcb565b10159392505050565b611ed9816040516024016120de9190612faa565b60408051601f198184030181529190526020810180516001600160e01b031663104c13eb60e21b1790526125df565b60008061214e6040518060400160405280601981526020017f2d2d2d2d20436f6d707574696e672046656573202d2d2d2d2d000000000000008152506120ca565b600061215a843a6136d4565b905061219060405180604001604052806012815260200171115cdd1a5b585d19590819d85cc818dbdcdd60721b81525082612403565b600085602001516001600160a01b031663313ce5676040518163ffffffff1660e01b815260040160206040518083038186803b1580156121cf57600080fd5b505afa1580156121e3573d6000803e3d6000fd5b505050506040513d601f19601f820116820180604052508101906122079190612dff565b60ff169050612231866040015161222b83600a6122249190613606565b859061248d565b90612633565b93506122726040518060400160405280601881526020017f47617320706f7274696f6e20696e2066656520746f6b656e000000000000000081525085612403565b6122ae604051806040016040528060168152602001754f72646572206e61746976652055534420707269636560501b8152508760600151612403565b6122f16040518060400160405280601c81526020017f4f726465722066656520746f6b656e206e6174697665207072696365000000008152508760400151612403565b600061230e8760400151886060015161248d90919063ffffffff16565b905061234860405180604001604052806016815260200175119959481d1bdad95b881c1c9a58d9481a5b881554d160521b81525082612403565b6123808161222b61235a856024613591565b61236590600a613606565b61236d611056565b600101546001600160801b03169061248d565b93506123af6040518060400160405280600b81526020016a44657869626c652066656560a81b81525085612403565b6123ed6040518060400160405280601a81526020017f2d2d2d2d20456e6420636f6d707574652066656573202d2d2d2d0000000000008152506120ca565b5050509250929050565b6000610e1382846136f3565b610e988282604051602401612419929190613043565b60408051601f198184030181529190526020810180516001600160e01b0316632d839cb360e21b1790526125df565b610e98828260405160240161245e929190613015565b60408051601f198184030181529190526020810180516001600160e01b0316634b5c427760e01b1790526125df565b6000610e1382846136d4565b6124f1846323b872dd60e01b8585856040516024016124ba93929190612f1c565b60408051601f198184030181529190526020810180516001600160e01b03166001600160e01b03199093169290921790915261263f565b50505050565b6107b28363a9059cbb60e01b84846040516024016124ba929190612f40565b6000612520611e3d565b8054909150610100900460ff168061253a5750805460ff16155b6125565760405162461bcd60e51b81526004016104e1906133ab565b8054610100900460ff1615801561257e57815460ff1961ff0019909116610100171660011782555b6000612588611051565b90506125a260008051602061395a83398151915282612011565b6125cc7f65d7a28e3265b37a6474929f336521b332c1681b933f6cb9f3376673440d862a82612011565b508015610e985750805461ff0019169055565b80516a636f6e736f6c652e6c6f67602083016000808483855afa5050505050565b60009182526001928301602090815260408084206001600160a01b0390931684529190529020805460ff19169091179055565b6000610e1382846135a9565b6000612694826040518060400160405280602081526020017f5361666545524332303a206c6f772d6c6576656c2063616c6c206661696c6564815250856001600160a01b03166126ce9092919063ffffffff16565b8051909150156107b257808060200190518101906126b29190612aff565b6107b25760405162461bcd60e51b81526004016104e1906133d8565b60606126dd84846000856126e7565b90505b9392505050565b6060824710156127095760405162461bcd60e51b81526004016104e1906130b0565b600080866001600160a01b031685876040516127259190612ed2565b60006040518083038185875af1925050503d8060008114612762576040519150601f19603f3d011682016040523d82523d6000602084013e612767565b606091505b509150915061277887838387612785565b925050505b949350505050565b606083156127bf5782516127b85761279c856127c9565b6127b85760405162461bcd60e51b81526004016104e190613374565b508161277d565b61277d83836127d8565b6001600160a01b03163b151590565b8151156127e85781518083602001fd5b8060405162461bcd60e51b81526004016104e19190612faa565b60408051608081018252600080825260208201819052918101829052606081019190915290565b6040518060800160405280600081526020016000815260200160008152602001600081525090565b6040518060e0016040528060006001600160a01b0316815260200160006001600160a01b031681526020016000815260200160008152602001600081526020016128996128ab565b81526020016128a66128ab565b905290565b604080518082019091526000808252602082015290565b8051801515811461123957600080fd5b60008083601f8401126128e3578182fd5b50813567ffffffffffffffff8111156128fa578182fd5b60208301915083602082850101111561291257600080fd5b9250929050565b6000610120828403121561292b578081fd5b60405161293960e082613736565b809150823561294781613838565b8152602083013561295781613838565b806020830152506040830135604082015260608301356060820152608083013560808201526129898460a085016129a7565b60a082015261299b8460e085016129a7565b60c08201525092915050565b6000604082840312156129b8578081fd5b6040516129c6604082613736565b80915082356129d481613838565b81526129e2602084016129ee565b60208201525092915050565b80356001600160701b038116811461123957600080fd5b600060208284031215612a16578081fd5b81356126e081613838565b600080600060608486031215612a35578182fd5b8335612a4081613838565b92506020840135612a5081613838565b9150604084013567ffffffffffffffff811115612a6b578182fd5b8401601f81018613612a7b578182fd5b8035612a8681613569565b604051612a938282613736565b828152886020848601011115612aa7578485fd5b826020850160208301378460208483010152809450505050509250925092565b60008060408385031215612ad9578182fd5b8235612ae481613838565b91506020830135612af481613838565b809150509250929050565b600060208284031215612b10578081fd5b610e13826128c2565b60008060408385031215612b2b578182fd5b612b34836128c2565b9150602083015167ffffffffffffffff811115612b4f578182fd5b8301601f81018513612b5f578182fd5b8051612b6a81613569565b604051612b778282613736565b828152876020848601011115612b8b578485fd5b612b9c83602083016020870161370a565b809450505050509250929050565b60008060408385031215612bbc578182fd5b823591506020830135612af481613838565b60008060408385031215612be0578182fd5b8235612beb81613838565b946020939093013593505050565b600060808284031215612c0a578081fd5b604051612c18608082613736565b8235612c2381613838565b81526020830135612c338161384d565b60208201526040830135612c468161384d565b60408201526060830135612c5981613862565b60608201529392505050565b600060808284031215612c76578081fd5b604051612c84608082613736565b8251612c8f81613838565b81526020830151612c9f8161384d565b60208201526040830151612cb28161384d565b60408201526060830151612c5981613862565b600080600080848603610160811215612cdc578283fd5b61012080821215612ceb578384fd5b8695508501359050612cfc81613838565b925061014085013567ffffffffffffffff811115612d18578283fd5b612d24878288016128d2565b95989497509550505050565b60006101208284031215612d42578081fd5b610e138383612919565b6000806000806101608587031215612d62578182fd5b612d6c8686612919565b9350610120850135612cfc81613838565b600060208284031215612d8e578081fd5b610e13826129ee565b600060208284031215612da8578081fd5b81356126e08161384d565b600060208284031215612dc4578081fd5b5035919050565b600060208284031215612ddc578081fd5b5051919050565b600060208284031215612df4578081fd5b81356126e081613862565b600060208284031215612e10578081fd5b81516126e081613862565b60008284528282602086013780602084860101526020601f19601f85011685010190509392505050565b60008151808452612e5d81602086016020860161370a565b601f01601f19169290920160200192915050565b80516001600160a01b031682526020808201516001600160801b03908116918401919091526040808301519091169083015260609081015160ff16910152565b80516001600160a01b031682526020908101516001600160701b0316910152565b60008251612ee481846020870161370a565b9190910192915050565b6001600160a01b0391909116815260200190565b6001600160a01b0392831681529116602082015260400190565b6001600160a01b039384168152919092166020820152604081019190915260600190565b6001600160a01b03929092168252602082015260400190565b6001600160a01b039290921682526001600160701b0316602082015260400190565b901515815260200190565b60008315158252604060208301526126dd6040830184612e45565b90815260200190565b600060208252610e136020830184612e45565b600060408252612fd06040830185612e45565b905060018060a01b03831660208301529392505050565b600060608252612ffa6060830186612e45565b6001600160a01b039490941660208301525060400152919050565b6000604082526130286040830185612e45565b828103602084015261303a8185612e45565b95945050505050565b6000604082526130566040830185612e45565b90508260208301529392505050565b6020808252602b908201527f417474656d7074696e6720746f2072652d656e7465722066756e6374696f6e2060408201526a7265637572736976656c7960a81b606082015260800190565b60208082526026908201527f416464726573733a20696e73756666696369656e742062616c616e636520666f6040820152651c8818d85b1b60d21b606082015260800190565b6020808252602e908201527f6661696c656420747261646520616374696f6e20646964206e6f74207265667560408201526d6e6420696e7075742066756e647360901b606082015260800190565b60208082526025908201527f496e73756666696369656e742062616c616e636520746f206d616b65207472616040820152643739b332b960d91b606082015260800190565b6020808252601a908201527f5573656420746f6f206d616e7920696e70757420746f6b656e73000000000000604082015260600190565b6020808252600e908201526d04661696c656420746f20737761760941b604082015260600190565b6020808252602b908201527f496e73756666696369656e74207370656e6420616c6c6f77616e6365206f6e2060408201526a34b7383aba103a37b5b2b760a91b606082015260800190565b60208082526029908201527f496e73756666696369656e7420696e70757420746f6b656e2062616c616e636560408201526820746f20747261646560b81b606082015260800190565b60208082526029908201527f43616e206f6e6c792062652063616c6c656420627920736574746c656d656e746040820152680818dbdb9d1c9858dd60ba1b606082015260800190565b6020808252601c908201527f496e73756666696369656e74207370656e6420616c6c6f77616e636500000000604082015260600190565b6020808252600990820152684e6f742072656c617960b81b604082015260600190565b60208082526035908201527f547261646520616374696f6e20646964206e6f74207472616e73666572206f756040820152743a383aba103a37b5b2b739903a37903a3930b232b960591b606082015260800190565b6020808252601d908201527f416464726573733a2063616c6c20746f206e6f6e2d636f6e7472616374000000604082015260600190565b602080825260139082015272105b1c9958591e481a5b9a5d1a585b1a5e9959606a1b604082015260600190565b6020808252602a908201527f5361666545524332303a204552433230206f7065726174696f6e20646964206e6040820152691bdd081cdd58d8d9595960b21b606082015260800190565b6020808252600990820152682737ba1030b236b4b760b91b604082015260600190565b92835260208301919091526001600160a01b0316604082015260600190565b60808101610e168284612e71565b82815260a081016126e06020830184612e71565b600061016060018060a01b0380885116845280602089015116602085015260408801516040850152606088015160608501526080880151608085015260a08801516134d460a0860182612eb1565b5060c08801516134e760e0860182612eb1565b50861661012084015261014083018190526135058184018587612e1b565b979650505050505050565b6001600160701b0395909516855260208501939093526001600160a01b039190911660408401526060830152608082015260a00190565b6001600160801b0391909116815260200190565b60ff91909116815260200190565b600067ffffffffffffffff82111561358357613583613779565b50601f01601f191660200190565b600082198211156135a4576135a4613763565b500190565b6000826135c457634e487b7160e01b81526012600452602481fd5b500490565b80825b60018086116135db5750610d76565b8187048211156135ed576135ed613763565b808616156135fa57918102915b9490941c9380026135cc565b6000610e13600019848460008261361f575060016126e0565b8161362c575060006126e0565b8160018114613642576002811461364c57613679565b60019150506126e0565b60ff84111561365d5761365d613763565b6001841b91508482111561367357613673613763565b506126e0565b5060208310610133831016604e8410600b84101617156136ac575081810a838111156136a7576136a7613763565b6126e0565b6136b984848460016135c9565b8086048211156136cb576136cb613763565b02949350505050565b60008160001904831182151516156136ee576136ee613763565b500290565b60008282101561370557613705613763565b500390565b60005b8381101561372557818101518382015260200161370d565b838111156124f15750506000910152565b601f8201601f1916810167ffffffffffffffff8111828210171561375c5761375c613779565b6040525050565b634e487b7160e01b600052601160045260246000fd5b634e487b7160e01b600052604160045260246000fd5b600060033d1115610a2757600481823e5160e01c90565b600060443d10156137b657610a27565b6040516003193d81016004833e81513d67ffffffffffffffff81602484011181841117156137e8575050505050610a27565b828501915081518181111561380257505050505050610a27565b843d870101602082850101111561381e57505050505050610a27565b61382d60208286010187613736565b509094505050505090565b6001600160a01b0381168114611ed957600080fd5b6001600160801b0381168114611ed957600080fd5b60ff81168114611ed957600080fdfe5472616e7366657272696e67207061727469616c20696e70757420746f6b656e20746f206465767465616d20666f72206661696c757265206761732066656573077a1d526a4ce8a773632ab13b4fbbf1fcc954c3dab26cd27ea0e2a6750da5d75472616e7366657272696e6720666565732066726f6d20696e70757420746f6b656e20746f206465765465616d43616e6e6f74207265696d62757273652072656c61792073696e636520646f206e6f74206861766520656e6f7567682066756e647353656e64696e6720666565732066726f6d206f757470757420746f6b656e20746f207465616da49807205ce4d355092ef5a8a18f56e8913cf4a201fbe287825b095693c2177546656520746f6b656e206973206f75747075743b207468657265666f72652063616e6e6f74207265696d6275727365207465616d20666f72206661696c757265206761732066656573a264697066735822122004a3a59bc569768da7210960a1864605d9d38e99a11ef4563b4ea9945a859d9664736f6c63430008010033",
  "libraries": {
    "BaseAccess": "0xf461e67FE8BAAF4882C2fC6f200233794540C5A0",
    "BaseConfig": "0xB63aB83B150aA88A879fEFb77EE0bc0b9C0CF4e0",
    "IDexRouter": "0xc698Ce0688a6d5Ca51351ffFbc48D6bC2AD9eC31",
    "LibAccess": "0xF8d429589060105C33d9AE1494808f644B8A75D6",
    "LibConfig": "0x3CB48bAe312a70eEd5C46082a3C567aa029a1d13",
    "LibStorage": "0xA0BAe3aa8C18Ff955195f404b7c7c744bb3D0D14",
    "Settlement": "0x2ec6c674dB9a9625BC7e699CAc4c6306084827FF",
    "ZrxRouter": "0xFd824FB0A2756e257A4B8501df7D3173A9c75381"
  },
  "devdoc": {
    "kind": "dev",
    "methods": {},
    "version": 1
  },
  "userdoc": {
    "kind": "user",
    "methods": {
      "depositWNative(address,uint256)": {
        "notice": "Team's ability to deposit native token into this contract using wrapped native asset allowance"
      },
      "fill((address,address,uint256,uint256,uint256,(address,uint112),(address,uint112)),address,bytes)": {
        "notice": "Fill an order using the given router and forwarded call data."
      },
      "getConfig()": {
        "notice": "Get the current configuration struct"
      },
      "getDevTeam()": {
        "notice": "Get the dev team wallet/multi-sig address"
      },
      "getLockoutBlocks()": {
        "notice": "Get the number of blocks to wait before trader can withdraw gas tank funds  marked for withdraw."
      },
      "getMinFee()": {
        "notice": "Get the minimum fee required for all orders"
      },
      "getPenaltyFee()": {
        "notice": "Get the penalty fee to asses when trader removes tokens or funds after Dexible submits orders on-chain."
      },
      "setConfig((address,uint128,uint128,uint8))": {
        "notice": "Set the current configuration as a bulk setting"
      },
      "setDevTeam(address)": {
        "notice": "Set the dev team wallet/multi-sig address"
      },
      "setLockoutBlocks(uint8)": {
        "notice": "Set the number of blocks to wait before thawed withdraws are allowed"
      },
      "setMinFee(uint128)": {
        "notice": "Set the minimum fee for an order execution"
      },
      "setPenaltyFee(uint128)": {
        "notice": "Set the penalty assessed when a user removes tokens or gas tank funds"
      },
      "withdraw(uint256)": {
        "notice": "Team's ability to withdraw ETH balance from the contract."
      }
    },
    "version": 1
  },
  "storageLayout": {
    "storage": [],
    "types": null
  }
}