{
  "address": "0xb7abc957b18092dB41997B059E316A4c57EbBb9A",
  "abi": [
    {
      "inputs": [],
      "name": "ACTION_ROLE",
      "outputs": [
        {
          "internalType": "bytes32",
          "name": "",
          "type": "bytes32"
        }
      ],
      "stateMutability": "view",
      "type": "function"
    },
    {
      "inputs": [],
      "name": "ADMIN_ROLE",
      "outputs": [
        {
          "internalType": "bytes32",
          "name": "",
          "type": "bytes32"
        }
      ],
      "stateMutability": "view",
      "type": "function"
    },
    {
      "inputs": [],
      "name": "PAUSER_ROLE",
      "outputs": [
        {
          "internalType": "bytes32",
          "name": "",
          "type": "bytes32"
        }
      ],
      "stateMutability": "view",
      "type": "function"
    },
    {
      "inputs": [],
      "name": "RELAY_ROLE",
      "outputs": [
        {
          "internalType": "bytes32",
          "name": "",
          "type": "bytes32"
        }
      ],
      "stateMutability": "view",
      "type": "function"
    },
    {
      "inputs": [
        {
          "internalType": "bytes32",
          "name": "role",
          "type": "bytes32"
        },
        {
          "internalType": "address",
          "name": "actor",
          "type": "address"
        }
      ],
      "name": "addRole",
      "outputs": [],
      "stateMutability": "nonpayable",
      "type": "function"
    },
    {
      "inputs": [
        {
          "components": [
            {
              "internalType": "address",
              "name": "trader",
              "type": "address"
            },
            {
              "internalType": "contract IERC20",
              "name": "feeToken",
              "type": "address"
            },
            {
              "internalType": "uint256",
              "name": "feeTokenETHPrice",
              "type": "uint256"
            },
            {
              "internalType": "uint256",
              "name": "ethUSDPrice",
              "type": "uint256"
            },
            {
              "internalType": "uint256",
              "name": "gasEstimate",
              "type": "uint256"
            },
            {
              "components": [
                {
                  "internalType": "contract IERC20",
                  "name": "token",
                  "type": "address"
                },
                {
                  "internalType": "uint112",
                  "name": "amount",
                  "type": "uint112"
                }
              ],
              "internalType": "struct Types.TokenAmount",
              "name": "input",
              "type": "tuple"
            },
            {
              "components": [
                {
                  "internalType": "contract IERC20",
                  "name": "token",
                  "type": "address"
                },
                {
                  "internalType": "uint112",
                  "name": "amount",
                  "type": "uint112"
                }
              ],
              "internalType": "struct Types.TokenAmount",
              "name": "output",
              "type": "tuple"
            }
          ],
          "internalType": "struct Types.Order",
          "name": "order",
          "type": "tuple"
        },
        {
          "internalType": "bytes",
          "name": "orderCallData",
          "type": "bytes"
        }
      ],
      "name": "fill",
      "outputs": [
        {
          "internalType": "bool",
          "name": "success",
          "type": "bool"
        },
        {
          "internalType": "string",
          "name": "failReason",
          "type": "string"
        }
      ],
      "stateMutability": "nonpayable",
      "type": "function"
    },
    {
      "inputs": [
        {
          "internalType": "bytes32",
          "name": "role",
          "type": "bytes32"
        },
        {
          "internalType": "address",
          "name": "actor",
          "type": "address"
        }
      ],
      "name": "hasRole",
      "outputs": [
        {
          "internalType": "bool",
          "name": "",
          "type": "bool"
        }
      ],
      "stateMutability": "view",
      "type": "function"
    },
    {
      "inputs": [],
      "name": "initialize",
      "outputs": [],
      "stateMutability": "nonpayable",
      "type": "function"
    },
    {
      "inputs": [
        {
          "internalType": "bytes32",
          "name": "role",
          "type": "bytes32"
        },
        {
          "internalType": "address",
          "name": "actor",
          "type": "address"
        }
      ],
      "name": "revokeRole",
      "outputs": [],
      "stateMutability": "nonpayable",
      "type": "function"
    },
    {
      "inputs": [
        {
          "internalType": "address",
          "name": "oldRelay",
          "type": "address"
        },
        {
          "internalType": "address",
          "name": "newRelay",
          "type": "address"
        }
      ],
      "name": "swapRelay",
      "outputs": [],
      "stateMutability": "nonpayable",
      "type": "function"
    },
    {
      "stateMutability": "payable",
      "type": "receive"
    }
  ],
  "transactionHash": "0xb39a9995a5b24fc02f5e7ed60bc0174ae24561af4a1e4b3ef9f47e234304011b",
  "args": [],
  "numDeployments": 2,
  "solcInputHash": "9e87d06f898d050c7b38b99cb6cd4986",
  "bytecode": "0x608060405234801561001057600080fd5b506115b7806100206000396000f3fe6080604052600436106100955760003560e01c806391d148541161005957806391d148541461013b578063c13da01814610168578063d547741f14610188578063e63ab1e9146101a8578063e959b38a146101bd5761009c565b806304421823146100a157806327054df6146100cc57806334c57920146100e157806375b238fc1461010f5780638129fc1c146101245761009c565b3661009c57005b600080fd5b3480156100ad57600080fd5b506100b66101dd565b6040516100c391906112e7565b60405180910390f35b3480156100d857600080fd5b506100b6610201565b3480156100ed57600080fd5b506101016100fc366004611164565b610225565b6040516100c39291906112cc565b34801561011b57600080fd5b506100b66108ef565b34801561013057600080fd5b50610139610901565b005b34801561014757600080fd5b5061015b610156366004611124565b610985565b6040516100c391906112c1565b34801561017457600080fd5b506101396101833660046110cc565b610a20565b34801561019457600080fd5b506101396101a3366004611124565b610aaa565b3480156101b457600080fd5b506100b6610af4565b3480156101c957600080fd5b506101396101d8366004611124565b610b18565b7f077a1d526a4ce8a773632ab13b4fbbf1fcc954c3dab26cd27ea0e2a6750da5d781565b7fd95061bdf0c43d77b6cbe1c15072292976244ec8d5012de75baa36e42da4625e81565b6000606081808061023886880188610ffb565b92509250925061025f60405180606001604052806027815260200161153b60279139610b58565b6102956040518060400160405280601481526020017311dbda5b99c81d1bc81cddd85c081d185c99d95d60621b81525084610b9e565b6102d46040518060400160405280601781526020017f417070726f76696e6720616c6c6f77616e636520666f7200000000000000000081525083610b9e565b60408051808201909152601581527414ddd85c1c1a5b99c81a5b9c1d5d08185b5bdd5b9d605a1b60208201526103229061031460e08b0160c08c016111eb565b6001600160701b0316610be3565b60006103356101008a0160e08b01611148565b6001600160a01b03166370a08231306040518263ffffffff1660e01b81526004016103609190611272565b60206040518083038186803b15801561037857600080fd5b505afa15801561038c573d6000803e3d6000fd5b505050506040513d601f19601f820116820180604052508101906103b09190611212565b90506103f16040518060400160405280601a81526020017f42616c616e6365206f66206f757470757420746f6b656e20623400000000000081525082610be3565b61040160c08a0160a08b01611148565b6001600160a01b031663095ea7b38460006040518363ffffffff1660e01b815260040161042f929190611286565b602060405180830381600087803b15801561044957600080fd5b505af115801561045d573d6000803e3d6000fd5b505050506040513d601f19601f820116820180604052508101906104819190611104565b61048a57600080fd5b61049a60c08a0160a08b01611148565b6001600160a01b031663095ea7b3846104b960e08d0160c08e016111eb565b6040518363ffffffff1660e01b81526004016104d692919061129f565b602060405180830381600087803b1580156104f057600080fd5b505af1158015610504573d6000803e3d6000fd5b505050506040513d601f19601f820116820180604052508101906105289190611104565b61053157600080fd5b6105686040518060400160405280601581526020017414ddd85c1c1a5b99c81dda5d1a0819d85cdb19599d605a1b8152505a610be3565b6000846001600160a01b03165a846040516105839190611256565b60006040518083038160008787f1925050503d80600081146105c1576040519150601f19603f3d011682016040523d82523d6000602084013e6105c6565b606091505b505090506105fa6040518060400160405280600e81526020016d047617320616674657220737761760941b8152505a610be3565b806106a05761062e6040518060400160405280600e81526020016d04661696c656420746f20737761760941b815250610b58565b610667604051806040016040528060188152602001772d2d2d2d20454e44205a525820524f55544552202d2d2d2d60401b815250610b58565b60006040518060400160405280601081526020016f14d5d05417d0d0531317d1905253115160821b8152509650965050505050506108e7565b60006106b36101008c0160e08d01611148565b6001600160a01b03166370a08231306040518263ffffffff1660e01b81526004016106de9190611272565b60206040518083038186803b1580156106f657600080fd5b505afa15801561070a573d6000803e3d6000fd5b505050506040513d601f19601f8201168201806040525081019061072e9190611212565b905061075f6040518060400160405280600d81526020016c2130b630b731b29030b33a32b960991b81525082610be3565b600061076b8285610c28565b905061079f6040518060400160405280601081526020016f10985b185b98d9481c9958d95a5d995960821b81525082610be3565b6107dd6040518060400160405280600c81526020016b135a5b881c995c5d5a5c995960a21b8152508d60e001602001602081019061031491906111eb565b6107ef6101208d016101008e016111eb565b6001600160701b03168110156108205760405162461bcd60e51b815260040161081790611395565b60405180910390fd5b61085261082b610c34565b828e60e00160000160208101906108429190611148565b6001600160a01b03169190610c39565b610890604051806040016040528060158152602001745472616e7366657272656420726573756c7420746f60581b81525061088b610c34565b610b9e565b6108c9604051806040016040528060188152602001772d2d2d2d20454e44205a525820524f55544552202d2d2d2d60401b815250610b58565b60016040518060200160405280600081525098509850505050505050505b935093915050565b60008051602061156283398151915281565b600061090b610c94565b8054909150610100900460ff16806109255750805460ff16155b6109415760405162461bcd60e51b815260040161081790611403565b8054610100900460ff1615801561096957815460ff1961ff0019909116610100171660011782555b610971610cb8565b801561098157815461ff00191682555b5050565b600061098f610d81565b604051630f40931b60e41b815273F8d429589060105C33d9AE1494808f644B8A75D69163f40931b0916109c991908790879060040161149d565b60206040518083038186803b1580156109e157600080fd5b505af41580156109f5573d6000803e3d6000fd5b505050506040513d601f19601f82011682018060405250810190610a199190611104565b9392505050565b610a3a600080516020611562833981519152610156610c34565b610a565760405162461bcd60e51b81526004016108179061147a565b610a807f077a1d526a4ce8a773632ab13b4fbbf1fcc954c3dab26cd27ea0e2a6750da5d783610aaa565b6109817f077a1d526a4ce8a773632ab13b4fbbf1fcc954c3dab26cd27ea0e2a6750da5d782610b18565b610ac4600080516020611562833981519152610156610c34565b610ae05760405162461bcd60e51b81526004016108179061147a565b6109818282610aed610d81565b9190610da5565b7f65d7a28e3265b37a6474929f336521b332c1681b933f6cb9f3376673440d862a81565b610b32600080516020611562833981519152610156610c34565b610b4e5760405162461bcd60e51b81526004016108179061147a565b6109818282610dd4565b610b9b81604051602401610b6c91906112f0565b60408051601f198184030181529190526020810180516001600160e01b031663104c13eb60e21b179052610de8565b50565b6109818282604051602401610bb4929190611303565b60408051601f198184030181529190526020810180516001600160e01b031663319af33360e01b179052610de8565b6109818282604051602401610bf992919061132d565b60408051601f198184030181529190526020810180516001600160e01b0316632d839cb360e21b179052610de8565b6000610a1982846114bc565b600090565b610c8f8363a9059cbb60e01b8484604051602401610c58929190611286565b60408051601f198184030181529190526020810180516001600160e01b03166001600160e01b031990931692909217909152610e09565b505050565b7fd59dd79cfd4373c6c6547848d91fc2ea67c8aec9053f7028828216c5af1d474190565b6000610cc2610c94565b8054909150610100900460ff1680610cdc5750805460ff16155b610cf85760405162461bcd60e51b815260040161081790611403565b8054610100900460ff16158015610d2057815460ff1961ff0019909116610100171660011782555b6000610d2a610c34565b9050610d4460008051602061156283398151915282610dd4565b610d6e7f65d7a28e3265b37a6474929f336521b332c1681b933f6cb9f3376673440d862a82610dd4565b5080156109815750805461ff0019169055565b7f3a83b1278d351a40f18bb9e8e77896e8c1dc812ffaed5ea63e0e837a6dae57e990565b60009182526001909201602090815260408083206001600160a01b03909416835292905220805460ff19169055565b6109818282610de1610d81565b9190610e98565b80516a636f6e736f6c652e6c6f67602083016000808483855afa5050505050565b6000610e5e826040518060400160405280602081526020017f5361666545524332303a206c6f772d6c6576656c2063616c6c206661696c6564815250856001600160a01b0316610ecb9092919063ffffffff16565b805190915015610c8f5780806020019051810190610e7c9190611104565b610c8f5760405162461bcd60e51b815260040161081790611430565b60009182526001928301602090815260408084206001600160a01b0390931684529190529020805460ff19169091179055565b6060610eda8484600085610ee2565b949350505050565b606082471015610f045760405162461bcd60e51b81526004016108179061134f565b600080866001600160a01b03168587604051610f209190611256565b60006040518083038185875af1925050503d8060008114610f5d576040519150601f19603f3d011682016040523d82523d6000602084013e610f62565b606091505b5091509150610f7387838387610f7e565b979650505050505050565b60608315610fb8578251610fb157610f9585610fc2565b610fb15760405162461bcd60e51b8152600401610817906113cc565b5081610eda565b610eda8383610fd1565b6001600160a01b03163b151590565b815115610fe15781518083602001fd5b8060405162461bcd60e51b815260040161081791906112f0565b60008060006060848603121561100f578283fd5b833561101a81611525565b9250602084013561102a81611525565b9150604084013567ffffffffffffffff80821115611046578283fd5b818601915086601f830112611059578283fd5b81358181111561106b5761106b61150f565b604051601f8201601f19908116603f011681019083821181831017156110935761109361150f565b816040528281528960208487010111156110ab578586fd5b82602086016020830137856020848301015280955050505050509250925092565b600080604083850312156110de578182fd5b82356110e981611525565b915060208301356110f981611525565b809150509250929050565b600060208284031215611115578081fd5b81518015158114610a19578182fd5b60008060408385031215611136578182fd5b8235915060208301356110f981611525565b600060208284031215611159578081fd5b8135610a1981611525565b600080600083850361014081121561117a578384fd5b61012080821215611189578485fd5b859450840135905067ffffffffffffffff808211156111a6578384fd5b818601915086601f8301126111b9578384fd5b8135818111156111c7578485fd5b8760208285010111156111d8578485fd5b6020830194508093505050509250925092565b6000602082840312156111fc578081fd5b81356001600160701b0381168114610a19578182fd5b600060208284031215611223578081fd5b5051919050565b600081518084526112428160208601602086016114df565b601f01601f19169290920160200192915050565b600082516112688184602087016114df565b9190910192915050565b6001600160a01b0391909116815260200190565b6001600160a01b03929092168252602082015260400190565b6001600160a01b039290921682526001600160701b0316602082015260400190565b901515815260200190565b6000831515825260406020830152610eda604083018461122a565b90815260200190565b600060208252610a19602083018461122a565b600060408252611316604083018561122a565b905060018060a01b03831660208301529392505050565b600060408252611340604083018561122a565b90508260208301529392505050565b60208082526026908201527f416464726573733a20696e73756666696369656e742062616c616e636520666f6040820152651c8818d85b1b60d21b606082015260800190565b6020808252601a908201527f496e73756666696369656e74206f757470757420616d6f756e74000000000000604082015260600190565b6020808252601d908201527f416464726573733a2063616c6c20746f206e6f6e2d636f6e7472616374000000604082015260600190565b602080825260139082015272105b1c9958591e481a5b9a5d1a585b1a5e9959606a1b604082015260600190565b6020808252602a908201527f5361666545524332303a204552433230206f7065726174696f6e20646964206e6040820152691bdd081cdd58d8d9595960b21b606082015260800190565b6020808252600990820152682737ba1030b236b4b760b91b604082015260600190565b92835260208301919091526001600160a01b0316604082015260600190565b6000828210156114da57634e487b7160e01b81526011600452602481fd5b500390565b60005b838110156114fa5781810151838201526020016114e2565b83811115611509576000848401525b50505050565b634e487b7160e01b600052604160045260246000fd5b6001600160a01b0381168114610b9b57600080fdfe2d2d2d2d2d2d2d2d2d2d2d2d2d205a525820524f55544552202d2d2d2d2d2d2d2d2d2d2d2d2d2da49807205ce4d355092ef5a8a18f56e8913cf4a201fbe287825b095693c21775a26469706673582212200787f2d0094667e482df340013c3cf8396f9356fbb19c55a648b559bbb43509464736f6c63430008010033",
  "deployedBytecode": "0x6080604052600436106100955760003560e01c806391d148541161005957806391d148541461013b578063c13da01814610168578063d547741f14610188578063e63ab1e9146101a8578063e959b38a146101bd5761009c565b806304421823146100a157806327054df6146100cc57806334c57920146100e157806375b238fc1461010f5780638129fc1c146101245761009c565b3661009c57005b600080fd5b3480156100ad57600080fd5b506100b66101dd565b6040516100c391906112e7565b60405180910390f35b3480156100d857600080fd5b506100b6610201565b3480156100ed57600080fd5b506101016100fc366004611164565b610225565b6040516100c39291906112cc565b34801561011b57600080fd5b506100b66108ef565b34801561013057600080fd5b50610139610901565b005b34801561014757600080fd5b5061015b610156366004611124565b610985565b6040516100c391906112c1565b34801561017457600080fd5b506101396101833660046110cc565b610a20565b34801561019457600080fd5b506101396101a3366004611124565b610aaa565b3480156101b457600080fd5b506100b6610af4565b3480156101c957600080fd5b506101396101d8366004611124565b610b18565b7f077a1d526a4ce8a773632ab13b4fbbf1fcc954c3dab26cd27ea0e2a6750da5d781565b7fd95061bdf0c43d77b6cbe1c15072292976244ec8d5012de75baa36e42da4625e81565b6000606081808061023886880188610ffb565b92509250925061025f60405180606001604052806027815260200161153b60279139610b58565b6102956040518060400160405280601481526020017311dbda5b99c81d1bc81cddd85c081d185c99d95d60621b81525084610b9e565b6102d46040518060400160405280601781526020017f417070726f76696e6720616c6c6f77616e636520666f7200000000000000000081525083610b9e565b60408051808201909152601581527414ddd85c1c1a5b99c81a5b9c1d5d08185b5bdd5b9d605a1b60208201526103229061031460e08b0160c08c016111eb565b6001600160701b0316610be3565b60006103356101008a0160e08b01611148565b6001600160a01b03166370a08231306040518263ffffffff1660e01b81526004016103609190611272565b60206040518083038186803b15801561037857600080fd5b505afa15801561038c573d6000803e3d6000fd5b505050506040513d601f19601f820116820180604052508101906103b09190611212565b90506103f16040518060400160405280601a81526020017f42616c616e6365206f66206f757470757420746f6b656e20623400000000000081525082610be3565b61040160c08a0160a08b01611148565b6001600160a01b031663095ea7b38460006040518363ffffffff1660e01b815260040161042f929190611286565b602060405180830381600087803b15801561044957600080fd5b505af115801561045d573d6000803e3d6000fd5b505050506040513d601f19601f820116820180604052508101906104819190611104565b61048a57600080fd5b61049a60c08a0160a08b01611148565b6001600160a01b031663095ea7b3846104b960e08d0160c08e016111eb565b6040518363ffffffff1660e01b81526004016104d692919061129f565b602060405180830381600087803b1580156104f057600080fd5b505af1158015610504573d6000803e3d6000fd5b505050506040513d601f19601f820116820180604052508101906105289190611104565b61053157600080fd5b6105686040518060400160405280601581526020017414ddd85c1c1a5b99c81dda5d1a0819d85cdb19599d605a1b8152505a610be3565b6000846001600160a01b03165a846040516105839190611256565b60006040518083038160008787f1925050503d80600081146105c1576040519150601f19603f3d011682016040523d82523d6000602084013e6105c6565b606091505b505090506105fa6040518060400160405280600e81526020016d047617320616674657220737761760941b8152505a610be3565b806106a05761062e6040518060400160405280600e81526020016d04661696c656420746f20737761760941b815250610b58565b610667604051806040016040528060188152602001772d2d2d2d20454e44205a525820524f55544552202d2d2d2d60401b815250610b58565b60006040518060400160405280601081526020016f14d5d05417d0d0531317d1905253115160821b8152509650965050505050506108e7565b60006106b36101008c0160e08d01611148565b6001600160a01b03166370a08231306040518263ffffffff1660e01b81526004016106de9190611272565b60206040518083038186803b1580156106f657600080fd5b505afa15801561070a573d6000803e3d6000fd5b505050506040513d601f19601f8201168201806040525081019061072e9190611212565b905061075f6040518060400160405280600d81526020016c2130b630b731b29030b33a32b960991b81525082610be3565b600061076b8285610c28565b905061079f6040518060400160405280601081526020016f10985b185b98d9481c9958d95a5d995960821b81525082610be3565b6107dd6040518060400160405280600c81526020016b135a5b881c995c5d5a5c995960a21b8152508d60e001602001602081019061031491906111eb565b6107ef6101208d016101008e016111eb565b6001600160701b03168110156108205760405162461bcd60e51b815260040161081790611395565b60405180910390fd5b61085261082b610c34565b828e60e00160000160208101906108429190611148565b6001600160a01b03169190610c39565b610890604051806040016040528060158152602001745472616e7366657272656420726573756c7420746f60581b81525061088b610c34565b610b9e565b6108c9604051806040016040528060188152602001772d2d2d2d20454e44205a525820524f55544552202d2d2d2d60401b815250610b58565b60016040518060200160405280600081525098509850505050505050505b935093915050565b60008051602061156283398151915281565b600061090b610c94565b8054909150610100900460ff16806109255750805460ff16155b6109415760405162461bcd60e51b815260040161081790611403565b8054610100900460ff1615801561096957815460ff1961ff0019909116610100171660011782555b610971610cb8565b801561098157815461ff00191682555b5050565b600061098f610d81565b604051630f40931b60e41b815273__$712f9bd20561de4f0bfbc1442284f16fb4$__9163f40931b0916109c991908790879060040161149d565b60206040518083038186803b1580156109e157600080fd5b505af41580156109f5573d6000803e3d6000fd5b505050506040513d601f19601f82011682018060405250810190610a199190611104565b9392505050565b610a3a600080516020611562833981519152610156610c34565b610a565760405162461bcd60e51b81526004016108179061147a565b610a807f077a1d526a4ce8a773632ab13b4fbbf1fcc954c3dab26cd27ea0e2a6750da5d783610aaa565b6109817f077a1d526a4ce8a773632ab13b4fbbf1fcc954c3dab26cd27ea0e2a6750da5d782610b18565b610ac4600080516020611562833981519152610156610c34565b610ae05760405162461bcd60e51b81526004016108179061147a565b6109818282610aed610d81565b9190610da5565b7f65d7a28e3265b37a6474929f336521b332c1681b933f6cb9f3376673440d862a81565b610b32600080516020611562833981519152610156610c34565b610b4e5760405162461bcd60e51b81526004016108179061147a565b6109818282610dd4565b610b9b81604051602401610b6c91906112f0565b60408051601f198184030181529190526020810180516001600160e01b031663104c13eb60e21b179052610de8565b50565b6109818282604051602401610bb4929190611303565b60408051601f198184030181529190526020810180516001600160e01b031663319af33360e01b179052610de8565b6109818282604051602401610bf992919061132d565b60408051601f198184030181529190526020810180516001600160e01b0316632d839cb360e21b179052610de8565b6000610a1982846114bc565b600090565b610c8f8363a9059cbb60e01b8484604051602401610c58929190611286565b60408051601f198184030181529190526020810180516001600160e01b03166001600160e01b031990931692909217909152610e09565b505050565b7fd59dd79cfd4373c6c6547848d91fc2ea67c8aec9053f7028828216c5af1d474190565b6000610cc2610c94565b8054909150610100900460ff1680610cdc5750805460ff16155b610cf85760405162461bcd60e51b815260040161081790611403565b8054610100900460ff16158015610d2057815460ff1961ff0019909116610100171660011782555b6000610d2a610c34565b9050610d4460008051602061156283398151915282610dd4565b610d6e7f65d7a28e3265b37a6474929f336521b332c1681b933f6cb9f3376673440d862a82610dd4565b5080156109815750805461ff0019169055565b7f3a83b1278d351a40f18bb9e8e77896e8c1dc812ffaed5ea63e0e837a6dae57e990565b60009182526001909201602090815260408083206001600160a01b03909416835292905220805460ff19169055565b6109818282610de1610d81565b9190610e98565b80516a636f6e736f6c652e6c6f67602083016000808483855afa5050505050565b6000610e5e826040518060400160405280602081526020017f5361666545524332303a206c6f772d6c6576656c2063616c6c206661696c6564815250856001600160a01b0316610ecb9092919063ffffffff16565b805190915015610c8f5780806020019051810190610e7c9190611104565b610c8f5760405162461bcd60e51b815260040161081790611430565b60009182526001928301602090815260408084206001600160a01b0390931684529190529020805460ff19169091179055565b6060610eda8484600085610ee2565b949350505050565b606082471015610f045760405162461bcd60e51b81526004016108179061134f565b600080866001600160a01b03168587604051610f209190611256565b60006040518083038185875af1925050503d8060008114610f5d576040519150601f19603f3d011682016040523d82523d6000602084013e610f62565b606091505b5091509150610f7387838387610f7e565b979650505050505050565b60608315610fb8578251610fb157610f9585610fc2565b610fb15760405162461bcd60e51b8152600401610817906113cc565b5081610eda565b610eda8383610fd1565b6001600160a01b03163b151590565b815115610fe15781518083602001fd5b8060405162461bcd60e51b815260040161081791906112f0565b60008060006060848603121561100f578283fd5b833561101a81611525565b9250602084013561102a81611525565b9150604084013567ffffffffffffffff80821115611046578283fd5b818601915086601f830112611059578283fd5b81358181111561106b5761106b61150f565b604051601f8201601f19908116603f011681019083821181831017156110935761109361150f565b816040528281528960208487010111156110ab578586fd5b82602086016020830137856020848301015280955050505050509250925092565b600080604083850312156110de578182fd5b82356110e981611525565b915060208301356110f981611525565b809150509250929050565b600060208284031215611115578081fd5b81518015158114610a19578182fd5b60008060408385031215611136578182fd5b8235915060208301356110f981611525565b600060208284031215611159578081fd5b8135610a1981611525565b600080600083850361014081121561117a578384fd5b61012080821215611189578485fd5b859450840135905067ffffffffffffffff808211156111a6578384fd5b818601915086601f8301126111b9578384fd5b8135818111156111c7578485fd5b8760208285010111156111d8578485fd5b6020830194508093505050509250925092565b6000602082840312156111fc578081fd5b81356001600160701b0381168114610a19578182fd5b600060208284031215611223578081fd5b5051919050565b600081518084526112428160208601602086016114df565b601f01601f19169290920160200192915050565b600082516112688184602087016114df565b9190910192915050565b6001600160a01b0391909116815260200190565b6001600160a01b03929092168252602082015260400190565b6001600160a01b039290921682526001600160701b0316602082015260400190565b901515815260200190565b6000831515825260406020830152610eda604083018461122a565b90815260200190565b600060208252610a19602083018461122a565b600060408252611316604083018561122a565b905060018060a01b03831660208301529392505050565b600060408252611340604083018561122a565b90508260208301529392505050565b60208082526026908201527f416464726573733a20696e73756666696369656e742062616c616e636520666f6040820152651c8818d85b1b60d21b606082015260800190565b6020808252601a908201527f496e73756666696369656e74206f757470757420616d6f756e74000000000000604082015260600190565b6020808252601d908201527f416464726573733a2063616c6c20746f206e6f6e2d636f6e7472616374000000604082015260600190565b602080825260139082015272105b1c9958591e481a5b9a5d1a585b1a5e9959606a1b604082015260600190565b6020808252602a908201527f5361666545524332303a204552433230206f7065726174696f6e20646964206e6040820152691bdd081cdd58d8d9595960b21b606082015260800190565b6020808252600990820152682737ba1030b236b4b760b91b604082015260600190565b92835260208301919091526001600160a01b0316604082015260600190565b6000828210156114da57634e487b7160e01b81526011600452602481fd5b500390565b60005b838110156114fa5781810151838201526020016114e2565b83811115611509576000848401525b50505050565b634e487b7160e01b600052604160045260246000fd5b6001600160a01b0381168114610b9b57600080fdfe2d2d2d2d2d2d2d2d2d2d2d2d2d205a525820524f55544552202d2d2d2d2d2d2d2d2d2d2d2d2d2da49807205ce4d355092ef5a8a18f56e8913cf4a201fbe287825b095693c21775a26469706673582212200787f2d0094667e482df340013c3cf8396f9356fbb19c55a648b559bbb43509464736f6c63430008010033",
  "libraries": {
    "BaseAccess": "0xf461e67FE8BAAF4882C2fC6f200233794540C5A0",
    "BaseConfig": "0xB63aB83B150aA88A879fEFb77EE0bc0b9C0CF4e0",
    "IDexRouter": "0xc698Ce0688a6d5Ca51351ffFbc48D6bC2AD9eC31",
    "LibAccess": "0xF8d429589060105C33d9AE1494808f644B8A75D6",
    "LibConfig": "0x3CB48bAe312a70eEd5C46082a3C567aa029a1d13",
    "LibStorage": "0xA0BAe3aa8C18Ff955195f404b7c7c744bb3D0D14",
    "Settlement": "0x21C2BCD9dbeeA476bB56B9e13ADC69a7dd074023",
    "ZrxRouter": "0xFd824FB0A2756e257A4B8501df7D3173A9c75381"
  },
  "devdoc": {
    "kind": "dev",
    "methods": {},
    "version": 1
  },
  "userdoc": {
    "kind": "user",
    "methods": {},
    "version": 1
  },
  "storageLayout": {
    "storage": [],
    "types": null
  }
}