{
  "address": "0xd2F8B945b4F2323A0d3bcbd20990c9B4C1653A6d",
  "abi": [
    {
      "inputs": [
        {
          "internalType": "address",
          "name": "_address",
          "type": "address"
        }
      ],
      "stateMutability": "nonpayable",
      "type": "constructor"
    },
    {
      "inputs": [
        {
          "internalType": "uint256",
          "name": "pool",
          "type": "uint256"
        }
      ],
      "name": "getPool",
      "outputs": [
        {
          "internalType": "address",
          "name": "",
          "type": "address"
        }
      ],
      "stateMutability": "view",
      "type": "function"
    },
    {
      "inputs": [],
      "name": "getPoolLength",
      "outputs": [
        {
          "internalType": "uint256",
          "name": "",
          "type": "uint256"
        }
      ],
      "stateMutability": "view",
      "type": "function"
    }
  ],
  "transactionHash": "0xa700609c1e4476bdd016f95353afb88800ab82575175124f88ec236f31810206",
  "args": [
    "0xc2f4C9B69448D94da2623787bD552F12B6a91278"
  ],
  "numDeployments": 4,
  "solcInputHash": "271445193001ebd815a064219d9d95a2",
  "bytecode": "0x608060405234801561001057600080fd5b506040516104a23803806104a2833981810160405281019061003291906100db565b806000806101000a81548173ffffffffffffffffffffffffffffffffffffffff021916908373ffffffffffffffffffffffffffffffffffffffff16021790555050610108565b600080fd5b600073ffffffffffffffffffffffffffffffffffffffff82169050919050565b60006100a88261007d565b9050919050565b6100b88161009d565b81146100c357600080fd5b50565b6000815190506100d5816100af565b92915050565b6000602082840312156100f1576100f0610078565b5b60006100ff848285016100c6565b91505092915050565b61038b806101176000396000f3fe608060405234801561001057600080fd5b50600436106100365760003560e01c8063068bcd8d1461003b578063b3944d521461006b575b600080fd5b61005560048036038101906100509190610207565b610089565b6040516100629190610275565b60405180910390f35b610073610131565b604051610080919061029f565b60405180910390f35b60008060008054906101000a900473ffffffffffffffffffffffffffffffffffffffff1673ffffffffffffffffffffffffffffffffffffffff16631e3dd18b846040518263ffffffff1660e01b81526004016100e5919061029f565b602060405180830381865afa158015610102573d6000803e3d6000fd5b505050506040513d601f19601f8201168201806040525081019061012691906102e6565b905080915050919050565b60008060008054906101000a900473ffffffffffffffffffffffffffffffffffffffff1673ffffffffffffffffffffffffffffffffffffffff1663574f2ba36040518163ffffffff1660e01b8152600401602060405180830381865afa15801561019f573d6000803e3d6000fd5b505050506040513d601f19601f820116820180604052508101906101c39190610328565b90508091505090565b600080fd5b6000819050919050565b6101e4816101d1565b81146101ef57600080fd5b50565b600081359050610201816101db565b92915050565b60006020828403121561021d5761021c6101cc565b5b600061022b848285016101f2565b91505092915050565b600073ffffffffffffffffffffffffffffffffffffffff82169050919050565b600061025f82610234565b9050919050565b61026f81610254565b82525050565b600060208201905061028a6000830184610266565b92915050565b610299816101d1565b82525050565b60006020820190506102b46000830184610290565b92915050565b6102c381610254565b81146102ce57600080fd5b50565b6000815190506102e0816102ba565b92915050565b6000602082840312156102fc576102fb6101cc565b5b600061030a848285016102d1565b91505092915050565b600081519050610322816101db565b92915050565b60006020828403121561033e5761033d6101cc565b5b600061034c84828501610313565b9150509291505056fea264697066735822122067f15deb9274395385b98c8c5302b93c995aed9d68c57a61eb78d8a6ae9344da64736f6c634300080a0033",
  "devdoc": {
    "kind": "dev",
    "methods": {},
    "version": 1
  },
  "userdoc": {
    "kind": "user",
    "methods": {},
    "version": 1
  },
  "storageLayout": {
    "storage": [
      {
        "astId": 17,
        "contract": "contracts/interfaceDEX.sol:DexProp",
        "label": "resultManager",
        "offset": 0,
        "slot": "0",
        "type": "t_contract(IDEX)14"
      }
    ],
    "types": {
      "t_contract(IDEX)14": {
        "encoding": "inplace",
        "label": "contract IDEX",
        "numberOfBytes": "20"
      }
    }
  }
}